:100000000C942A000C94F02B189500001895000011
:10001000189500001895000018950000189500002C
:10002000189500001895000018950000189500001C
:10003000189500001895000018950000189500000C
:1000400018950000189500000C942E2618950000B5
:10005000189500008FE58DBFC0E4E8E34E2E88E0E0
:100060008EBFD8E0F8E05F2EEEEFF7E0A0E6B0E05C
:1000700088278D933197E9F70E948C2C662480E0C5
:100080008FBD82E08EBD83E088B985B7836085BF70
:100090008FEF84BBBA98BB9888980E94712C8CE033
:1000A0000E94DA2CA898A998AA98AB98AC98AD9819
:1000B000AE98AF988EB5887F8EBDE1E0F0E0AEE6F9
:1000C000B0E091E00E94A12EE2E0F0E0AFE6B0E007
:1000D00091E00E94A12EE3E0F0E0A0E7B0E091E023
:1000E0000E94A12EE4E0F0E0A1E7B0E091E00E94E0
:1000F000A12EE5E0F0E0A2E7B0E091E00E94A12EA1
:10010000E6E0F0E0A3E7B0E091E00E94A12EE7E096
:10011000F0E0A4E7B0E091E00E94A12EE8E0F0E07A
:10012000A5E7B0E091E00E94A12EE9E0F0E0A6E7AB
:10013000B0E091E00E94A12EEAE0F0E0A7E7B0E095
:1001400091E00E94A12EEBE0F0E0A8E7B0E091E0A2
:100150000E94A12E43988BB78F7B8BBFF89480E5CC
:1001600080936E008FE711E00E94802CE8E5FDE5AA
:100170000E946A2C0E940B2DA8E6B0E00D93882700
:100180008C93A8E6B0E00D911C91003150E015076A
:1001900011F00C94BA00A8E6B0E00D911C9101306A
:1001A00050E0150718F011F00C94D8000C94E10001
:1001B0000E940B2DA8E6B0E00D9388278C930C9439
:1001C000CB00A8E6B0E00D911C91003050E015077F
:1001D00011F00C944D010E94712C8FE711E00E94E8
:1001E000802CE6E6FDE50E946A2C8FEB11E00E9470
:1001F000802CECE6FDE50E946A2C0E940B2DA8E6FF
:10020000B0E00D9388278C93A8E6B0E00D911C9187
:10021000003150E0150711F00C94FD00A8E6B0E0A5
:100220000D911C91023050E0150718F011F00C945C
:100230001B010C9424010E940B2DA8E6B0E00D9345
:1002400088278C930C940E01A8E6B0E00D911C91C8
:10025000003050E0150711F00C94330181E08093D9
:1002600067000C944701013050E0150711F00C9421
:100270003E0182E0809367000C944701023050E019
:10028000150711F00C94470183E0809367000E94EA
:10029000712C0C9497230C949723013050E0150790
:1002A00011F00C9497230E94712C8FE711E00E94AB
:1002B000802CE6E6FDE50E946A2C8FEB11E00E949F
:1002C000802CECE6FDE50E946A2C0E940B2DA8E62E
:1002D000B0E00D9388278C93A8E6B0E00D911C91B7
:1002E000003150E0150711F00C946501A8E6B0E06C
:1002F0000D911C91023050E0150718F011F00C948C
:1003000083010C948C010E940B2DA8E6B0E00D93A4
:1003100088278C930C947601A8E6B0E00D911C918F
:10032000003050E0150711F00C94D4070E94712C96
:100330008CE00E94DA2C8CE00E94DA2C8FE711E02E
:100340000E94802CECE7FDE50E946A2C0E940B2D98
:10035000A8E6B0E00D9388278C93A8E6B0E00D9155
:100360001C91003150E0150711F00C94A601A8E68D
:10037000B0E00D911C91013050E0150718F011F01C
:100380000C94C4010C94CD010E940B2DA8E6B0E0A2
:100390000D9388278C930C94B701A8E6B0E00D91DB
:1003A0001C91003050E0150711F00C94D1040E940C
:1003B000712C8FE711E00E94802CA0E2B8E0EEE6FD
:1003C000F0E00E94372E0E94622CE6E8FDE50E94D4
:1003D0006A2C8FEB11E00E94802CEAE8FDE50E9478
:1003E0006A2C0E940B2DA8E6B0E00D9388278C9311
:1003F000A8E6B0E00D911C91003150E0150711F016
:100400000C94F101A8E6B0E00D911C91013050E090
:10041000150718F011F00C940F020C9418020E94AA
:100420000B2DA8E6B0E00D9388278C930C94020264
:100430000E94712CA8E6B0E00D911C91013050E0B3
:10044000150711F00C9426020C9498018CE00E9480
:10045000DA2C80E090E0AAE6B0E08D939C938FEBDD
:1004600011E00E94802CEAE9FDE50E946A2C8FE7EA
:1004700011E00E94802C8DE00E94DA2C0E940B2D4E
:10048000A8E6B0E00D9388278C93A8E6B0E00D9124
:100490001C91003150E0150711F00C943E02A8E6C3
:1004A000B0E00D911C91003150E0150711F00C9453
:1004B00062020E940B2DA8E6B0E00D9388278C9372
:1004C0000C944F02A8E6B0E00D911C91033050E06F
:1004D000150781E009F080E08F93A8E6B0E00D9168
:1004E0001C91073050E0150781E009F080E09F91F2
:1004F000892B8F93A8E6B0E00D911C910B3050E052
:10050000150781E009F080E09F91892B8F93A8E681
:10051000B0E00D911C910C3050E0150781E009F01E
:1005200080E09F91892B8F93A8E6B0E00D911C91FC
:100530000E3050E0150781E009F080E09F91892B93
:100540008F93A8E6B0E00D911C910F3050E0150795
:1005500081E009F080E09F91892B882311F40C94AD
:10056000B3020C943E02E0E6F8E5A8E6B0E08D9117
:100570009C91A8E6B0E00E94152E8FE711E00E9442
:10058000802CA0E2B8E0E8E6F0E00E94282E0E946D
:10059000622CA8E6B0E00D911C9144E650E00E9468
:1005A000452DA8E6B0E00D931C93AAE6B0E00D91AE
:1005B0001C91A8E6B0E04D915C91040F151FAAE6CE
:1005C000B0E00D931C930E940B2DA8E6B0E00D93B4
:1005D00088278C93A8E6B0E00D911C91003150E083
:1005E000150711F00C94E302A8E6B0E00D911C9100
:1005F000003150E0150711F00C9407030E940B2DF9
:10060000A8E6B0E00D9388278C930C94F402A8E63A
:10061000B0E00D911C91073050E0150711F00C94DB
:1006200015030E94712C0C942602A8E6B0E00D91EF
:100630001C91033050E0150781E009F080E08F93B2
:10064000A8E6B0E00D911C91073050E0150781E05D
:1006500009F080E09F91892B8F93A8E6B0E00D917F
:100660001C910B3050E0150781E009F080E09F916C
:10067000892B8F93A8E6B0E00D911C910C3050E0CF
:10068000150781E009F080E09F91892B8F93A8E600
:10069000B0E00D911C910E3050E0150781E009F09B
:1006A00080E09F91892B8F93A8E6B0E00D911C917B
:1006B0000F3050E0150781E009F080E09F91892B11
:1006C000882311F40C9466030C94E302E0E6F8E549
:1006D000A8E6B0E08D919C91A8E6B0E00E94152EAE
:1006E0008FE712E00E94802CA0E2B8E0E8E6F0E09C
:1006F0000E94282E0E94622CA8E6B0E00D911C9169
:100700004AE050E00E94452DA8E6B0E00D931C930E
:10071000AAE6B0E00D911C91A8E6B0E04D915C9185
:10072000040F151FAAE6B0E00D931C930E940B2D39
:10073000A8E6B0E00D9388278C93A8E6B0E00D9171
:100740001C91003150E0150711F00C949603A8E6B7
:10075000B0E00D911C91003150E0150711F00C94A0
:10076000BA030E940B2DA8E6B0E00D9388278C9366
:100770000C94A703A8E6B0E00D911C91073050E05F
:10078000150711F00C94C8030E94712C0C942602DA
:10079000A8E6B0E00D911C91033050E0150781E010
:1007A00009F080E08F93A8E6B0E00D911C9107302E
:1007B00050E0150781E009F080E09F91892B8F932D
:1007C000A8E6B0E00D911C910B3050E0150781E0D8
:1007D00009F080E09F91892B8F93A8E6B0E00D91FE
:1007E0001C910C3050E0150781E009F080E09F91EA
:1007F000892B8F93A8E6B0E00D911C910E3050E04C
:10080000150781E009F080E09F91892B8F93A8E67E
:10081000B0E00D911C910F3050E0150781E009F018
:1008200080E09F91892B882311F40C9419040C9477
:100830009603E0E6F8E5A8E6B0E08D919C91A8E685
:10084000B0E00E94152E8FE713E00E94802CA0E2FA
:10085000B8E0E8E6F0E00E94282E0E94622CE6E86C
:10086000FDE50E946A2C8DE00E94DA2CAAE6B0E039
:100870000D911C91A8E6B0E04D915C91040F151FFD
:10088000AAE6B0E00D931C938FEB11E00E94802C40
:10089000E4EAFDE50E946A2C0E940B2DA8E6B0E078
:1008A0000D9388278C93A8E6B0E00D911C91003140
:1008B00050E0150711F00C944C04A8E6B0E00D913F
:1008C0001C91033050E0150781E008F080E08F9321
:1008D000A8E6B0E00D911C91043050E0150781E0CE
:1008E00009F080E09F91892B8F93A8E6B0E00D91ED
:1008F0001C91053050E0150781E009F080E09F91E0
:10090000892B8F93A8E6B0E00D911C91063050E042
:10091000150781E009F080E09F91892B8F93A8E66D
:10092000B0E00D911C91073050E0150780E010F009
:1009300009F081E09F91892B882311F40C94A9047C
:100940000E940B2DA8E6B0E00D9388278C930C94A1
:100950005D04A8E6B0E00D911C91073050E015074A
:1009600011F00C94B9040E94712C0C9426020C9482
:10097000CF04033050E0150711F00C94CF048091A0
:100980006A0080936E00E1E0F0E0AEE6B0E091E056
:100990007BE70E94902E0E94712C0C9498010C947D
:1009A000D207013050E0150711F00C94D2070E94D5
:1009B000712C8FE711E00E94802CA0E2B8E0EFE6F6
:1009C000F0E00E94372E0E94622CE6E8FDE50E94CE
:1009D0006A2C8FEB11E00E94802CEAE8FDE50E9472
:1009E0006A2C0E940B2DA8E6B0E00D9388278C930B
:1009F000A8E6B0E00D911C91003150E0150711F010
:100A00000C94F104A8E6B0E00D911C91013050E087
:100A1000150718F011F00C940F050C9418050E949E
:100A20000B2DA8E6B0E00D9388278C930C9402055B
:100A30000E94712CA8E6B0E00D911C91013050E0AD
:100A4000150711F00C9426050C9498018DE00E9476
:100A5000DA2C80E090E0AAE6B0E08D939C938FEBD7
:100A600011E00E94802CEAE9FDE50E946A2C8FE7E4
:100A700011E00E94802C8CE00E94DA2C8DE00E9414
:100A8000DA2C0E940B2DA8E6B0E00D9388278C93FA
:100A9000A8E6B0E00D911C91003150E0150711F06F
:100AA0000C944105A8E6B0E00D911C91003150E096
:100AB000150711F00C9465050E940B2DA8E6B0E017
:100AC0000D9388278C930C945205A8E6B0E00D9105
:100AD0001C91033050E0150781E009F080E08F930E
:100AE000A8E6B0E00D911C91073050E0150781E0B9
:100AF00009F080E09F91892B8F93A8E6B0E00D91DB
:100B00001C910B3050E0150781E009F080E09F91C7
:100B1000892B8F93A8E6B0E00D911C910C3050E02A
:100B2000150781E009F080E09F91892B8F93A8E65B
:100B3000B0E00D911C910E3050E0150781E009F0F6
:100B400080E09F91892B8F93A8E6B0E00D911C91D6
:100B50000F3050E0150781E009F080E09F91892B6C
:100B6000882311F40C94B6050C944105E0E6F8E5F1
:100B7000A8E6B0E08D919C91A8E6B0E00E94152E09
:100B80008FE711E00E94802CA0E2B8E0E8E6F0E0F8
:100B90000E94282E0E94622CA8E6B0E00D911C91C4
:100BA00044E650E00E94452DA8E6B0E00D931C936A
:100BB000AAE6B0E00D911C91A8E6B0E04D915C91E1
:100BC000040F151FAAE6B0E00D931C930E940B2D95
:100BD000A8E6B0E00D9388278C93A8E6B0E00D91CD
:100BE0001C91003150E0150711F00C94E605A8E6C1
:100BF000B0E00D911C91003150E0150711F00C94FC
:100C00000A060E940B2DA8E6B0E00D9388278C936E
:100C10000C94F705A8E6B0E00D911C91073050E068
:100C2000150711F00C9418060E94712C0C942605DF
:100C3000A8E6B0E00D911C91033050E0150781E06B
:100C400009F080E08F93A8E6B0E00D911C91073089
:100C500050E0150781E009F080E09F91892B8F9388
:100C6000A8E6B0E00D911C910B3050E0150781E033
:100C700009F080E09F91892B8F93A8E6B0E00D9159
:100C80001C910C3050E0150781E009F080E09F9145
:100C9000892B8F93A8E6B0E00D911C910E3050E0A7
:100CA000150781E009F080E09F91892B8F93A8E6DA
:100CB000B0E00D911C910F3050E0150781E009F074
:100CC00080E09F91892B882311F40C9469060C9481
:100CD000E605E0E6F8E5A8E6B0E08D919C91A8E68F
:100CE000B0E00E94152E8FE712E00E94802CA0E257
:100CF000B8E0E8E6F0E00E94282E0E94622CA8E608
:100D0000B0E00D911C914AE050E00E94452DA8E60C
:100D1000B0E00D931C93AAE6B0E00D911C91A8E6FB
:100D2000B0E04D915C91040F151FAAE6B0E00D9361
:100D30001C930E940B2DA8E6B0E00D9388278C939E
:100D4000A8E6B0E00D911C91003150E0150711F0BC
:100D50000C949906A8E6B0E00D911C91003150E08A
:100D6000150711F00C94BD060E940B2DA8E6B0E00B
:100D70000D9388278C930C94AA06A8E6B0E00D91F9
:100D80001C91073050E0150711F00C94CB060E941F
:100D9000712C0C942605A8E6B0E00D911C9103304F
:100DA00050E0150781E009F080E08F93A8E6B0E0FD
:100DB0000D911C91073050E0150781E009F080E0AB
:100DC0009F91892B8F93A8E6B0E00D911C910B3079
:100DD00050E0150781E009F080E09F91892B8F9307
:100DE000A8E6B0E00D911C910C3050E0150781E0B1
:100DF00009F080E09F91892B8F93A8E6B0E00D91D8
:100E00001C910E3050E0150781E009F080E09F91C1
:100E1000892B8F93A8E6B0E00D911C910F3050E024
:100E2000150781E009F080E09F91892B882311F458
:100E30000C941C070C949906E0E6F8E5A8E6B0E0EF
:100E40008D919C91A8E6B0E00E94152E8FE713E0EB
:100E50000E94802CA0E2B8E0E8E6F0E00E94282E94
:100E60000E94622CE6E8FDE50E946A2C8DE00E945B
:100E7000DA2CAAE6B0E00D911C91A8E6B0E04D9105
:100E80005C91040F151FAAE6B0E00D931C938FEB45
:100E900011E00E94802CE4EAFDE50E946A2C0E9489
:100EA0000B2DA8E6B0E00D9388278C93A8E6B0E060
:100EB0000D911C91003150E0150711F00C944F0773
:100EC000A8E6B0E00D911C91033050E0150781E0D9
:100ED00008F080E08F93A8E6B0E00D911C910430FB
:100EE00050E0150781E009F080E09F91892B8F93F6
:100EF000A8E6B0E00D911C91053050E0150781E0A7
:100F000009F080E09F91892B8F93A8E6B0E00D91C6
:100F10001C91063050E0150781E009F080E09F91B8
:100F2000892B8F93A8E6B0E00D911C91073050E01B
:100F3000150780E010F009F081E09F91892B88234C
:100F400011F40C94AC070E940B2DA8E6B0E00D93B1
:100F500088278C930C946007A8E6B0E00D911C9153
:100F6000073050E0150711F00C94BC070E94712C5B
:100F70000C9426050C94D207033050E0150711F0AD
:100F80000C94D20780916A0080936F00E2E0F0E059
:100F9000AFE6B0E091E07BE70E94902E0E94712CBA
:100FA0000C9498010C949723013050E0150711F030
:100FB0000C9435140E94712C8CE00E94DA2C8CE089
:100FC0000E94DA2C8FE711E00E94802CE6EBFDE511
:100FD0000E946A2C8FEB11E00E94802CE6ECFDE56C
:100FE0000E946A2C0E940B2DA8E6B0E00D93882782
:100FF0008C93A8E6B0E00D911C91003150E01507EC
:1010000011F00C94F207A8E6B0E00D911C910330AA
:1010100050E0150781E009F080E08F93A8E6B0E08A
:101020000D911C91043050E0150780E010F009F09C
:1010300081E09F91892B882311F40C9428080E9449
:101040000B2DA8E6B0E00D9388278C930C94030831
:10105000A8E6B0E00D911C91003050E0150711F0AA
:101060000C942C0B0E94712C8FE711E00E94802CB5
:10107000A0E2B8E0E0E7F0E00E94372E0E94622C88
:10108000E6E8FDE50E946A2C8FEB11E00E94802CBF
:10109000EAE8FDE50E946A2C0E940B2DA8E6B0E06C
:1010A0000D9388278C93A8E6B0E00D911C91003138
:1010B00050E0150711F00C944C08A8E6B0E00D9133
:1010C0001C91013050E0150718F011F00C946A08DB
:1010D0000C9473080E940B2DA8E6B0E00D938827AE
:1010E0008C930C945D080E94712CA8E6B0E00D91E1
:1010F0001C91013050E0150711F00C9481080C94FC
:10110000DC078CE00E94DA2C80E090E0AAE6B0E0F8
:101110008D939C938FEB11E00E94802CEAE9FDE512
:101120000E946A2C8FE711E00E94802C8DE00E94C3
:10113000DA2C0E940B2DA8E6B0E00D9388278C9343
:10114000A8E6B0E00D911C91003150E0150711F0B8
:101150000C949908A8E6B0E00D911C91003150E084
:10116000150711F00C94BD080E940B2DA8E6B0E005
:101170000D9388278C930C94AA08A8E6B0E00D91F3
:101180001C91033050E0150781E009F080E08F9357
:10119000A8E6B0E00D911C91073050E0150781E002
:1011A00009F080E09F91892B8F93A8E6B0E00D9124
:1011B0001C910B3050E0150781E009F080E09F9111
:1011C000892B8F93A8E6B0E00D911C910C3050E074
:1011D000150781E009F080E09F91892B8F93A8E6A5
:1011E000B0E00D911C910E3050E0150781E009F040
:1011F00080E09F91892B8F93A8E6B0E00D911C9120
:101200000F3050E0150781E009F080E09F91892BB5
:10121000882311F40C940E090C949908E0E6F8E583
:10122000A8E6B0E08D919C91A8E6B0E00E94152E52
:101230008FE711E00E94802CA0E2B8E0E8E6F0E041
:101240000E94282E0E94622CA8E6B0E00D911C910D
:1012500044E650E00E94452DA8E6B0E00D931C93B3
:10126000AAE6B0E00D911C91A8E6B0E04D915C912A
:10127000040F151FAAE6B0E00D931C930E940B2DDE
:10128000A8E6B0E00D9388278C93A8E6B0E00D9116
:101290001C91003150E0150711F00C943E09A8E6AE
:1012A000B0E00D911C91003150E0150711F00C9445
:1012B00062090E940B2DA8E6B0E00D9388278C935D
:1012C0000C944F09A8E6B0E00D911C91073050E056
:1012D000150711F00C9470090E94712C0C94810870
:1012E000A8E6B0E00D911C91033050E0150781E0B5
:1012F00009F080E08F93A8E6B0E00D911C910730D3
:1013000050E0150781E009F080E09F91892B8F93D1
:10131000A8E6B0E00D911C910B3050E0150781E07C
:1013200009F080E09F91892B8F93A8E6B0E00D91A2
:101330001C910C3050E0150781E009F080E09F918E
:10134000892B8F93A8E6B0E00D911C910E3050E0F0
:10135000150781E009F080E09F91892B8F93A8E623
:10136000B0E00D911C910F3050E0150781E009F0BD
:1013700080E09F91892B882311F40C94C1090C946F
:101380003E09E0E6F8E5A8E6B0E08D919C91A8E67C
:10139000B0E00E94152E8FE712E00E94802CA0E2A0
:1013A000B8E0E8E6F0E00E94282E0E94622CA8E651
:1013B000B0E00D911C914AE050E00E94452DA8E656
:1013C000B0E00D931C93AAE6B0E00D911C91A8E645
:1013D000B0E04D915C91040F151FAAE6B0E00D93AB
:1013E0001C930E940B2DA8E6B0E00D9388278C93E8
:1013F000A8E6B0E00D911C91003150E0150711F006
:101400000C94F109A8E6B0E00D911C91003150E078
:10141000150711F00C94150A0E940B2DA8E6B0E0F8
:101420000D9388278C930C94020AA8E6B0E00D91E6
:101430001C91073050E0150711F00C94230A0E940C
:10144000712C0C948108A8E6B0E00D911C9103303A
:1014500050E0150781E009F080E08F93A8E6B0E046
:101460000D911C91073050E0150781E009F080E0F4
:101470009F91892B8F93A8E6B0E00D911C910B30C2
:1014800050E0150781E009F080E09F91892B8F9350
:10149000A8E6B0E00D911C910C3050E0150781E0FA
:1014A00009F080E09F91892B8F93A8E6B0E00D9121
:1014B0001C910E3050E0150781E009F080E09F910B
:1014C000892B8F93A8E6B0E00D911C910F3050E06E
:1014D000150781E009F080E09F91892B882311F4A2
:1014E0000C94740A0C94F109E0E6F8E5A8E6B0E083
:1014F0008D919C91A8E6B0E00E94152E8FE713E035
:101500000E94802CA0E2B8E0E8E6F0E00E94282EDD
:101510000E94622CE6E8FDE50E946A2C8DE00E94A4
:10152000DA2CAAE6B0E00D911C91A8E6B0E04D914E
:101530005C91040F151FAAE6B0E00D931C938FEB8E
:1015400011E00E94802CE4EAFDE50E946A2C0E94D2
:101550000B2DA8E6B0E00D9388278C93A8E6B0E0A9
:101560000D911C91003150E0150711F00C94A70A61
:10157000A8E6B0E00D911C91033050E0150781E022
:1015800008F080E08F93A8E6B0E00D911C91043044
:1015900050E0150781E009F080E09F91892B8F933F
:1015A000A8E6B0E00D911C91053050E0150781E0F0
:1015B00009F080E09F91892B8F93A8E6B0E00D9110
:1015C0001C91063050E0150781E009F080E09F9102
:1015D000892B8F93A8E6B0E00D911C91073050E065
:1015E000150780E010F009F081E09F91892B882396
:1015F00011F40C94040B0E940B2DA8E6B0E00D939F
:1016000088278C930C94B80AA8E6B0E00D911C9141
:10161000073050E0150711F00C94140B0E94712C48
:101620000C9481080C942A0B033050E0150711F03C
:101630000C942A0B80916A0080937000E3E0F0E044
:10164000A0E7B0E091E07BE70E94902E0E94712C11
:101650000C94DC070C943314013050E0150711F0A2
:101660000C942F0E0E94712C8FE711E00E94802CA9
:10167000A0E2B8E0E1E7F0E00E94372E0E94622C81
:10168000E6E8FDE50E946A2C8FEB11E00E94802CB9
:10169000EAE8FDE50E946A2C0E940B2DA8E6B0E066
:1016A0000D9388278C93A8E6B0E00D911C91003132
:1016B00050E0150711F00C944C0BA8E6B0E00D912A
:1016C0001C91013050E0150718F011F00C946A0BD2
:1016D0000C94730B0E940B2DA8E6B0E00D938827A5
:1016E0008C930C945D0B0E94712CA8E6B0E00D91D8
:1016F0001C91013050E0150711F00C94810B0C94F3
:10170000DC078DE00E94DA2C80E090E0AAE6B0E0F1
:101710008D939C938FEB11E00E94802CEAE9FDE50C
:101720000E946A2C8FE711E00E94802C8CE00E94BE
:10173000DA2C8DE00E94DA2C0E940B2DA8E6B0E096
:101740000D9388278C93A8E6B0E00D911C91003191
:1017500050E0150711F00C949C0BA8E6B0E00D9139
:101760001C91003150E0150711F00C94C00B0E9441
:101770000B2DA8E6B0E00D9388278C930C94AD0B4D
:10178000A8E6B0E00D911C91033050E0150781E010
:1017900009F080E08F93A8E6B0E00D911C9107302E
:1017A00050E0150781E009F080E09F91892B8F932D
:1017B000A8E6B0E00D911C910B3050E0150781E0D8
:1017C00009F080E09F91892B8F93A8E6B0E00D91FE
:1017D0001C910C3050E0150781E009F080E09F91EA
:1017E000892B8F93A8E6B0E00D911C910E3050E04C
:1017F000150781E009F080E09F91892B8F93A8E67F
:10180000B0E00D911C910F3050E0150781E009F018
:1018100080E09F91892B882311F40C94110C0C9477
:101820009C0BE0E6F8E5A8E6B0E08D919C91A8E677
:10183000B0E00E94152E8FE711E00E94802CA0E2FC
:10184000B8E0E8E6F0E00E94282E0E94622CA8E6AC
:10185000B0E00D911C9144E650E00E94452DA8E6B1
:10186000B0E00D931C93AAE6B0E00D911C91A8E6A0
:10187000B0E04D915C91040F151FAAE6B0E00D9306
:101880001C930E940B2DA8E6B0E00D9388278C9343
:10189000A8E6B0E00D911C91003150E0150711F061
:1018A0000C94410CA8E6B0E00D911C91003150E081
:1018B000150711F00C94650C0E940B2DA8E6B0E002
:1018C0000D9388278C930C94520CA8E6B0E00D91F0
:1018D0001C91073050E0150711F00C94730C0E9416
:1018E000712C0C94810BA8E6B0E00D911C91033093
:1018F00050E0150781E009F080E08F93A8E6B0E0A2
:101900000D911C91073050E0150781E009F080E04F
:101910009F91892B8F93A8E6B0E00D911C910B301D
:1019200050E0150781E009F080E09F91892B8F93AB
:10193000A8E6B0E00D911C910C3050E0150781E055
:1019400009F080E09F91892B8F93A8E6B0E00D917C
:101950001C910E3050E0150781E009F080E09F9166
:10196000892B8F93A8E6B0E00D911C910F3050E0C9
:10197000150781E009F080E09F91892B882311F4FD
:101980000C94C40C0C94410CE0E6F8E5A8E6B0E039
:101990008D919C91A8E6B0E00E94152E8FE712E091
:1019A0000E94802CA0E2B8E0E8E6F0E00E94282E39
:1019B0000E94622CA8E6B0E00D911C914AE050E034
:1019C0000E94452DA8E6B0E00D931C93AAE6B0E076
:1019D0000D911C91A8E6B0E04D915C91040F151F8C
:1019E000AAE6B0E00D931C930E940B2DA8E6B0E090
:1019F0000D9388278C93A8E6B0E00D911C910031DF
:101A000050E0150711F00C94F40CA8E6B0E00D912D
:101A10001C91003150E0150711F00C94180D0E9434
:101A20000B2DA8E6B0E00D9388278C930C94050D40
:101A3000A8E6B0E00D911C91073050E0150711F0B9
:101A40000C94260D0E94712C0C94810BA8E6B0E03A
:101A50000D911C91033050E0150781E009F080E002
:101A60008F93A8E6B0E00D911C91073050E0150768
:101A700081E009F080E09F91892B8F93A8E6B0E088
:101A80000D911C910B3050E0150781E009F080E0CA
:101A90009F91892B8F93A8E6B0E00D911C910C309B
:101AA00050E0150781E009F080E09F91892B8F932A
:101AB000A8E6B0E00D911C910E3050E0150781E0D2
:101AC00009F080E09F91892B8F93A8E6B0E00D91FB
:101AD0001C910F3050E0150781E009F080E09F91E4
:101AE000892B882311F40C94770D0C94F40CE0E608
:101AF000F8E5A8E6B0E08D919C91A8E6B0E00E94E0
:101B0000152E8FE713E00E94802CA0E2B8E0E8E6F3
:101B1000F0E00E94282E0E94622CE6E8FDE50E947B
:101B20006A2C8DE00E94DA2CAAE6B0E00D911C919F
:101B3000A8E6B0E04D915C91040F151FAAE6B0E055
:101B40000D931C938FEB11E00E94802CE4EAFDE5DD
:101B50000E946A2C0E940B2DA8E6B0E00D93882706
:101B60008C93A8E6B0E00D911C91003150E0150770
:101B700011F00C94AA0DA8E6B0E00D911C91033071
:101B800050E0150781E008F080E08F93A8E6B0E010
:101B90000D911C91043050E0150781E009F080E0C0
:101BA0009F91892B8F93A8E6B0E00D911C91053091
:101BB00050E0150781E009F080E09F91892B8F9319
:101BC000A8E6B0E00D911C91063050E0150781E0C9
:101BD00009F080E09F91892B8F93A8E6B0E00D91EA
:101BE0001C91073050E0150780E010F009F081E00B
:101BF0009F91892B882311F40C94070E0E940B2DC2
:101C0000A8E6B0E00D9388278C930C94BB0DA8E652
:101C1000B0E00D911C91073050E0150711F00C94C5
:101C2000170E0E94712C0C94810B0C942D0E033016
:101C300050E0150711F00C942D0E80916A008093EE
:101C40007100E4E0F0E0A1E7B0E091E07BE70E9402
:101C5000902E0E94712C0C94DC070C9433140230EB
:101C600050E0150711F00C9432110E94712C8FE78F
:101C700011E00E94802CA0E2B8E0E2E7F0E00E94D0
:101C8000372E0E94622CE6E8FDE50E946A2C8FEB5D
:101C900011E00E94802CEAE8FDE50E946A2C0E9477
:101CA0000B2DA8E6B0E00D9388278C93A8E6B0E052
:101CB0000D911C91003150E0150711F00C944F0E5E
:101CC000A8E6B0E00D911C91013050E0150718F026
:101CD00011F00C946D0E0C94760E0E940B2DA8E65C
:101CE000B0E00D9388278C930C94600E0E94712CA9
:101CF000A8E6B0E00D911C91013050E0150711F0FD
:101D00000C94840E0C94DC078DE00E94DA2C80E0A9
:101D100090E0AAE6B0E08D939C938FEB11E00E94D7
:101D2000802CEAE9FDE50E946A2C8FE711E00E9411
:101D3000802C8CE00E94DA2C8DE00E94DA2C0E942C
:101D40000B2DA8E6B0E00D9388278C93A8E6B0E0B1
:101D50000D911C91003150E0150711F00C949F0E6D
:101D6000A8E6B0E00D911C91003150E0150711F08C
:101D70000C94C30E0E940B2DA8E6B0E00D938827AB
:101D80008C930C94B00EA8E6B0E00D911C9103303A
:101D900050E0150781E009F080E08F93A8E6B0E0FD
:101DA0000D911C91073050E0150781E009F080E0AB
:101DB0009F91892B8F93A8E6B0E00D911C910B3079
:101DC00050E0150781E009F080E09F91892B8F9307
:101DD000A8E6B0E00D911C910C3050E0150781E0B1
:101DE00009F080E09F91892B8F93A8E6B0E00D91D8
:101DF0001C910E3050E0150781E009F080E09F91C2
:101E0000892B8F93A8E6B0E00D911C910F3050E024
:101E1000150781E009F080E09F91892B882311F458
:101E20000C94140F0C949F0EE0E6F8E5A8E6B0E0E1
:101E30008D919C91A8E6B0E00E94152E8FE711E0ED
:101E40000E94802CA0E2B8E0E8E6F0E00E94282E94
:101E50000E94622CA8E6B0E00D911C9144E650E08F
:101E60000E94452DA8E6B0E00D931C93AAE6B0E0D1
:101E70000D911C91A8E6B0E04D915C91040F151FE7
:101E8000AAE6B0E00D931C930E940B2DA8E6B0E0EB
:101E90000D9388278C93A8E6B0E00D911C9100313A
:101EA00050E0150711F00C94440FA8E6B0E00D9136
:101EB0001C91003150E0150711F00C94680F0E943E
:101EC0000B2DA8E6B0E00D9388278C930C94550F4A
:101ED000A8E6B0E00D911C91073050E0150711F015
:101EE0000C94760F0E94712C0C94840EA8E6B0E03E
:101EF0000D911C91033050E0150781E009F080E05E
:101F00008F93A8E6B0E00D911C91073050E01507C3
:101F100081E009F080E09F91892B8F93A8E6B0E0E3
:101F20000D911C910B3050E0150781E009F080E025
:101F30009F91892B8F93A8E6B0E00D911C910C30F6
:101F400050E0150781E009F080E09F91892B8F9385
:101F5000A8E6B0E00D911C910E3050E0150781E02D
:101F600009F080E09F91892B8F93A8E6B0E00D9156
:101F70001C910F3050E0150781E009F080E09F913F
:101F8000892B882311F40C94C70F0C94440FE0E6BE
:101F9000F8E5A8E6B0E08D919C91A8E6B0E00E943B
:101FA000152E8FE712E00E94802CA0E2B8E0E8E650
:101FB000F0E00E94282E0E94622CA8E6B0E00D916D
:101FC0001C914AE050E00E94452DA8E6B0E00D9338
:101FD0001C93AAE6B0E00D911C91A8E6B0E04D91EB
:101FE0005C91040F151FAAE6B0E00D931C930E94AC
:101FF0000B2DA8E6B0E00D9388278C93A8E6B0E0FF
:102000000D911C91003150E0150711F00C94F70F61
:10201000A8E6B0E00D911C91003150E0150711F0D9
:102020000C941B100E940B2DA8E6B0E00D9388279E
:102030008C930C940810A8E6B0E00D911C91073029
:1020400050E0150711F00C9429100E94712C0C948B
:10205000840EA8E6B0E00D911C91033050E0150706
:1020600081E009F080E08F93A8E6B0E00D911C912B
:10207000073050E0150781E009F080E09F91892B3F
:102080008F93A8E6B0E00D911C910B3050E015073E
:1020900081E009F080E09F91892B8F93A8E6B0E062
:1020A0000D911C910C3050E0150781E009F080E0A3
:1020B0009F91892B8F93A8E6B0E00D911C910E3073
:1020C00050E0150781E009F080E09F91892B8F9304
:1020D000A8E6B0E00D911C910F3050E0150781E0AB
:1020E00009F080E09F91892B882311F40C947A10D9
:1020F0000C94F70FE0E6F8E5A8E6B0E08D919C912E
:10210000A8E6B0E00E94152E8FE713E00E94802C15
:10211000A0E2B8E0E8E6F0E00E94282E0E94622CDF
:10212000E6E8FDE50E946A2C8DE00E94DA2CAAE622
:10213000B0E00D911C91A8E6B0E04D915C91040FC8
:10214000151FAAE6B0E00D931C938FEB11E00E94DF
:10215000802CE4EAFDE50E946A2C0E940B2DA8E683
:10216000B0E00D9388278C93A8E6B0E00D911C9108
:10217000003150E0150711F00C94AD10A8E6B0E066
:102180000D911C91033050E0150781E008F080E0CC
:102190008F93A8E6B0E00D911C91043050E0150734
:1021A00081E009F080E09F91892B8F93A8E6B0E051
:1021B0000D911C91053050E0150781E009F080E099
:1021C0009F91892B8F93A8E6B0E00D911C9106306A
:1021D00050E0150781E009F080E09F91892B8F93F3
:1021E000A8E6B0E00D911C91073050E0150780E0A3
:1021F00010F009F081E09F91892B882311F40C9451
:102200000A110E940B2DA8E6B0E00D9388278C934D
:102210000C94BE10A8E6B0E00D911C91073050E080
:10222000150711F00C941A110E94712C0C94840E55
:102230000C943011033050E0150711F00C9430115C
:1022400080916A0080937200E5E0F0E0A2E7B0E0E0
:1022500091E07BE70E94902E0E94712C0C94DC0789
:102260000C943314043050E0150711F00C9433141F
:102270000E94712C8FE711E00E94802CA0E2B8E050
:10228000E3E7F0E00E94372E0E94622CE6E8FDE5CD
:102290000E946A2C8FEB11E00E94802CEAE8FDE599
:1022A0000E946A2C0E940B2DA8E6B0E00D938827AF
:1022B0008C93A8E6B0E00D911C91003150E0150719
:1022C00011F00C945211A8E6B0E00D911C91013070
:1022D00050E0150718F011F00C9470110C9479115E
:1022E0000E940B2DA8E6B0E00D9388278C930C94E8
:1022F00063110E94712CA8E6B0E00D911C91013091
:1023000050E0150711F00C9487110C94DC078DE058
:102310000E94DA2C80E090E0AAE6B0E08D939C93D6
:102320008FEB11E00E94802CEAE9FDE50E946A2C07
:102330008FE711E00E94802C8CE00E94DA2C8DE067
:102340000E94DA2C0E940B2DA8E6B0E00D9388279E
:102350008C93A8E6B0E00D911C91003150E0150778
:1023600011F00C94A211A8E6B0E00D911C9100317F
:1023700050E0150711F00C94C6110E940B2DA8E631
:10238000B0E00D9388278C930C94B311A8E6B0E0CD
:102390000D911C91033050E0150781E009F080E0B9
:1023A0008F93A8E6B0E00D911C91073050E015071F
:1023B00081E009F080E09F91892B8F93A8E6B0E03F
:1023C0000D911C910B3050E0150781E009F080E081
:1023D0009F91892B8F93A8E6B0E00D911C910C3052
:1023E00050E0150781E009F080E09F91892B8F93E1
:1023F000A8E6B0E00D911C910E3050E0150781E089
:1024000009F080E09F91892B8F93A8E6B0E00D91B1
:102410001C910F3050E0150781E009F080E09F919A
:10242000892B882311F40C9417120C94A211E0E666
:10243000F8E5A8E6B0E08D919C91A8E6B0E00E9496
:10244000152E8FE711E00E94802CA0E2B8E0E8E6AC
:10245000F0E00E94282E0E94622CA8E6B0E00D91C8
:102460001C9144E650E00E94452DA8E6B0E00D9393
:102470001C93AAE6B0E00D911C91A8E6B0E04D9146
:102480005C91040F151FAAE6B0E00D931C930E9407
:102490000B2DA8E6B0E00D9388278C93A8E6B0E05A
:1024A0000D911C91003150E0150711F00C9447126A
:1024B000A8E6B0E00D911C91003150E0150711F035
:1024C0000C946B120E940B2DA8E6B0E00D938827A8
:1024D0008C930C945812A8E6B0E00D911C91073033
:1024E00050E0150711F00C9479120E94712C0C9495
:1024F0008711A8E6B0E00D911C91033050E015075C
:1025000081E009F080E08F93A8E6B0E00D911C9186
:10251000073050E0150781E009F080E09F91892B9A
:102520008F93A8E6B0E00D911C910B3050E0150799
:1025300081E009F080E09F91892B8F93A8E6B0E0BD
:102540000D911C910C3050E0150781E009F080E0FE
:102550009F91892B8F93A8E6B0E00D911C910E30CE
:1025600050E0150781E009F080E09F91892B8F935F
:10257000A8E6B0E00D911C910F3050E0150781E006
:1025800009F080E09F91892B882311F40C94CA12E2
:102590000C944712E0E6F8E5A8E6B0E08D919C9136
:1025A000A8E6B0E00E94152E8FE712E00E94802C72
:1025B000A0E2B8E0E8E6F0E00E94282E0E94622C3B
:1025C000A8E6B0E00D911C914AE050E00E94452D34
:1025D000A8E6B0E00D931C93AAE6B0E00D911C9123
:1025E000A8E6B0E04D915C91040F151FAAE6B0E09B
:1025F0000D931C930E940B2DA8E6B0E00D93882745
:102600008C93A8E6B0E00D911C91003150E01507C5
:1026100011F00C94FA12A8E6B0E00D911C91003173
:1026200050E0150711F00C941E130E940B2DA8E624
:10263000B0E00D9388278C930C940B13A8E6B0E0C0
:102640000D911C91073050E0150711F00C942C13DC
:102650000E94712C0C948711A8E6B0E00D911C919A
:10266000033050E0150781E009F080E08F93A8E681
:10267000B0E00D911C91073050E0150781E009F0A2
:1026800080E09F91892B8F93A8E6B0E00D911C917B
:102690000B3050E0150781E009F080E09F91892B15
:1026A0008F93A8E6B0E00D911C910C3050E0150717
:1026B00081E009F080E09F91892B8F93A8E6B0E03C
:1026C0000D911C910E3050E0150781E009F080E07B
:1026D0009F91892B8F93A8E6B0E00D911C910F304C
:1026E00050E0150781E009F080E09F91892B882355
:1026F00011F40C947D130C94FA12E0E6F8E5A8E6C8
:10270000B0E08D919C91A8E6B0E00E94152E8FE775
:1027100013E00E94802CA0E2B8E0E8E6F0E00E941E
:10272000282E0E94622CE6E8FDE50E946A2C8DE0CE
:102730000E94DA2CAAE6B0E00D911C91A8E6B0E068
:102740004D915C91040F151FAAE6B0E00D931C9308
:102750008FEB11E00E94802CE4EAFDE50E946A2CD8
:102760000E940B2DA8E6B0E00D9388278C93A8E675
:10277000B0E00D911C91003150E0150711F00C9460
:10278000B013A8E6B0E00D911C91033050E015079E
:1027900081E008F080E08F93A8E6B0E00D911C91F5
:1027A000043050E0150781E009F080E09F91892B0B
:1027B0008F93A8E6B0E00D911C91053050E015070D
:1027C00081E009F080E09F91892B8F93A8E6B0E02B
:1027D0000D911C91063050E0150781E009F080E072
:1027E0009F91892B8F93A8E6B0E00D911C91073043
:1027F00050E0150780E010F009F081E09F91892BEF
:10280000882311F40C940D140E940B2DA8E6B0E05F
:102810000D9388278C930C94C113A8E6B0E00D911A
:102820001C91073050E0150711F00C941D140E9404
:10283000712C0C9487110C943314033050E015075D
:1028400011F00C94331480916A0080937300E6E0D9
:10285000F0E0A3E7B0E091E07BE70E94902E0E94B9
:10286000712C0C94DC070C949723023050E0150770
:1028700011F00C9497230E94712C8CE00E94DA2CAA
:102880008CE00E94DA2C8FE711E00E94802CE6EBAE
:10289000FDE50E946A2C8FEB11E00E94802CECEC8D
:1028A000FDE50E946A2C0E940B2DA8E6B0E00D9376
:1028B00088278C93A8E6B0E00D911C91003150E080
:1028C000150711F00C945314A8E6B0E00D911C917B
:1028D000033050E0150781E009F080E08F93A8E60F
:1028E000B0E00D911C91053050E0150780E010F02C
:1028F00009F081E09F91892B882311F40C948914AD
:102900000E940B2DA8E6B0E00D9388278C930C94C1
:102910006414A8E6B0E00D911C91003050E015075A
:1029200011F00C948D170E94712C8FE711E00E941A
:10293000802CA0E2B8E0E4E7F0E00E94372E0E948D
:10294000622CE6E8FDE50E946A2C8FEB11E00E9404
:10295000802CEAE8FDE50E946A2C0E940B2DA8E677
:10296000B0E00D9388278C93A8E6B0E00D911C9100
:10297000003150E0150711F00C94AD14A8E6B0E05A
:102980000D911C91013050E0150718F011F00C94D6
:10299000CB140C94D4140E940B2DA8E6B0E00D9338
:1029A00088278C930C94BE140E94712CA8E6B0E08A
:1029B0000D911C91013050E0150711F00C94E214B8
:1029C0000C943D148CE00E94DA2C80E090E0AAE6A2
:1029D000B0E08D939C938FEB11E00E94802CEAE98C
:1029E000FDE50E946A2C8FE711E00E94802C8DE0AB
:1029F0000E94DA2C0E940B2DA8E6B0E00D938827E8
:102A00008C93A8E6B0E00D911C91003150E01507C1
:102A100011F00C94FA14A8E6B0E00D911C9100316D
:102A200050E0150711F00C941E150E940B2DA8E61E
:102A3000B0E00D9388278C930C940B15A8E6B0E0BA
:102A40000D911C91033050E0150781E009F080E002
:102A50008F93A8E6B0E00D911C91073050E0150768
:102A600081E009F080E09F91892B8F93A8E6B0E088
:102A70000D911C910B3050E0150781E009F080E0CA
:102A80009F91892B8F93A8E6B0E00D911C910C309B
:102A900050E0150781E009F080E09F91892B8F932A
:102AA000A8E6B0E00D911C910E3050E0150781E0D2
:102AB00009F080E09F91892B8F93A8E6B0E00D91FB
:102AC0001C910F3050E0150781E009F080E09F91E4
:102AD000892B882311F40C946F150C94FA14E0E6FA
:102AE000F8E5A8E6B0E08D919C91A8E6B0E00E94E0
:102AF000152E8FE711E00E94802CA0E2B8E0E8E6F6
:102B0000F0E00E94282E0E94622CA8E6B0E00D9111
:102B10001C9144E650E00E94452DA8E6B0E00D93DC
:102B20001C93AAE6B0E00D911C91A8E6B0E04D918F
:102B30005C91040F151FAAE6B0E00D931C930E9450
:102B40000B2DA8E6B0E00D9388278C93A8E6B0E0A3
:102B50000D911C91003150E0150711F00C949F1558
:102B6000A8E6B0E00D911C91003150E0150711F07E
:102B70000C94C3150E940B2DA8E6B0E00D93882796
:102B80008C930C94B015A8E6B0E00D911C91073021
:102B900050E0150711F00C94D1150E94712C0C9483
:102BA000E214A8E6B0E00D911C91033050E0150747
:102BB00081E009F080E08F93A8E6B0E00D911C91D0
:102BC000073050E0150781E009F080E09F91892BE4
:102BD0008F93A8E6B0E00D911C910B3050E01507E3
:102BE00081E009F080E09F91892B8F93A8E6B0E007
:102BF0000D911C910C3050E0150781E009F080E048
:102C00009F91892B8F93A8E6B0E00D911C910E3017
:102C100050E0150781E009F080E09F91892B8F93A8
:102C2000A8E6B0E00D911C910F3050E0150781E04F
:102C300009F080E09F91892B882311F40C942216CF
:102C40000C949F15E0E6F8E5A8E6B0E08D919C9124
:102C5000A8E6B0E00E94152E8FE712E00E94802CBB
:102C6000A0E2B8E0E8E6F0E00E94282E0E94622C84
:102C7000A8E6B0E00D911C914AE050E00E94452D7D
:102C8000A8E6B0E00D931C93AAE6B0E00D911C916C
:102C9000A8E6B0E04D915C91040F151FAAE6B0E0E4
:102CA0000D931C930E940B2DA8E6B0E00D9388278E
:102CB0008C93A8E6B0E00D911C91003150E015070F
:102CC00011F00C945216A8E6B0E00D911C91003161
:102CD00050E0150711F00C9476160E940B2DA8E613
:102CE000B0E00D9388278C930C946316A8E6B0E0AF
:102CF0000D911C91073050E0150711F00C948416CB
:102D00000E94712C0C94E214A8E6B0E00D911C9185
:102D1000033050E0150781E009F080E08F93A8E6CA
:102D2000B0E00D911C91073050E0150781E009F0EB
:102D300080E09F91892B8F93A8E6B0E00D911C91C4
:102D40000B3050E0150781E009F080E09F91892B5E
:102D50008F93A8E6B0E00D911C910C3050E0150760
:102D600081E009F080E09F91892B8F93A8E6B0E085
:102D70000D911C910E3050E0150781E009F080E0C4
:102D80009F91892B8F93A8E6B0E00D911C910F3095
:102D900050E0150781E009F080E09F91892B88239E
:102DA00011F40C94D5160C945216E0E6F8E5A8E65A
:102DB000B0E08D919C91A8E6B0E00E94152E8FE7BF
:102DC00013E00E94802CA0E2B8E0E8E6F0E00E9468
:102DD000282E0E94622CE6E8FDE50E946A2C8DE018
:102DE0000E94DA2CAAE6B0E00D911C91A8E6B0E0B2
:102DF0004D915C91040F151FAAE6B0E00D931C9352
:102E00008FEB11E00E94802CE4EAFDE50E946A2C21
:102E10000E940B2DA8E6B0E00D9388278C93A8E6BE
:102E2000B0E00D911C91003150E0150711F00C94A9
:102E30000817A8E6B0E00D911C91033050E015078B
:102E400081E008F080E08F93A8E6B0E00D911C913E
:102E5000043050E0150781E009F080E09F91892B54
:102E60008F93A8E6B0E00D911C91053050E0150756
:102E700081E009F080E09F91892B8F93A8E6B0E074
:102E80000D911C91063050E0150781E009F080E0BB
:102E90009F91892B8F93A8E6B0E00D911C9107308C
:102EA00050E0150780E010F009F081E09F91892B38
:102EB000882311F40C9465170E940B2DA8E6B0E04E
:102EC0000D9388278C930C941917A8E6B0E00D9108
:102ED0001C91073050E0150711F00C9475170E94F3
:102EE000712C0C94E2140C948B17033050E01507EE
:102EF00011F00C948B1780916A0080937400E7E0C6
:102F0000F0E0A4E7B0E091E07BE70E94902E0E9401
:102F1000712C0C943D140C949723013050E015074C
:102F200011F00C94901A0E94712C8FE711E00E940E
:102F3000802CA0E2B8E0E5E7F0E00E94372E0E9486
:102F4000622CE6E8FDE50E946A2C8FEB11E00E94FE
:102F5000802CEAE8FDE50E946A2C0E940B2DA8E671
:102F6000B0E00D9388278C93A8E6B0E00D911C91FA
:102F7000003150E0150711F00C94AD17A8E6B0E051
:102F80000D911C91013050E0150718F011F00C94D0
:102F9000CB170C94D4170E940B2DA8E6B0E00D932C
:102FA00088278C930C94BE170E94712CA8E6B0E081
:102FB0000D911C91013050E0150711F00C94E217AF
:102FC0000C943D148DE00E94DA2C80E090E0AAE69B
:102FD000B0E08D939C938FEB11E00E94802CEAE986
:102FE000FDE50E946A2C8FE711E00E94802C8CE0A6
:102FF0000E94DA2C8DE00E94DA2C0E940B2DA8E6AC
:10300000B0E00D9388278C93A8E6B0E00D911C9159
:10301000003150E0150711F00C94FD17A8E6B0E060
:103020000D911C91003150E0150711F00C942118FE
:103030000E940B2DA8E6B0E00D9388278C930C948A
:103040000E18A8E6B0E00D911C91033050E0150772
:1030500081E009F080E08F93A8E6B0E00D911C912B
:10306000073050E0150781E009F080E09F91892B3F
:103070008F93A8E6B0E00D911C910B3050E015073E
:1030800081E009F080E09F91892B8F93A8E6B0E062
:103090000D911C910C3050E0150781E009F080E0A3
:1030A0009F91892B8F93A8E6B0E00D911C910E3073
:1030B00050E0150781E009F080E09F91892B8F9304
:1030C000A8E6B0E00D911C910F3050E0150781E0AB
:1030D00009F080E09F91892B882311F40C947218D9
:1030E0000C94FD17E0E6F8E5A8E6B0E08D919C9120
:1030F000A8E6B0E00E94152E8FE711E00E94802C18
:10310000A0E2B8E0E8E6F0E00E94282E0E94622CDF
:10311000A8E6B0E00D911C9144E650E00E94452DD8
:10312000A8E6B0E00D931C93AAE6B0E00D911C91C7
:10313000A8E6B0E04D915C91040F151FAAE6B0E03F
:103140000D931C930E940B2DA8E6B0E00D938827E9
:103150008C93A8E6B0E00D911C91003150E015076A
:1031600011F00C94A218A8E6B0E00D911C9100316A
:1031700050E0150711F00C94C6180E940B2DA8E61C
:10318000B0E00D9388278C930C94B318A8E6B0E0B8
:103190000D911C91073050E0150711F00C94D418D4
:1031A0000E94712C0C94E217A8E6B0E00D911C91DE
:1031B000033050E0150781E009F080E08F93A8E626
:1031C000B0E00D911C91073050E0150781E009F047
:1031D00080E09F91892B8F93A8E6B0E00D911C9120
:1031E0000B3050E0150781E009F080E09F91892BBA
:1031F0008F93A8E6B0E00D911C910C3050E01507BC
:1032000081E009F080E09F91892B8F93A8E6B0E0E0
:103210000D911C910E3050E0150781E009F080E01F
:103220009F91892B8F93A8E6B0E00D911C910F30F0
:1032300050E0150781E009F080E09F91892B8823F9
:1032400011F40C9425190C94A218E0E6F8E5A8E610
:10325000B0E08D919C91A8E6B0E00E94152E8FE71A
:1032600012E00E94802CA0E2B8E0E8E6F0E00E94C4
:10327000282E0E94622CA8E6B0E00D911C914AE035
:1032800050E00E94452DA8E6B0E00D931C93AAE6FD
:10329000B0E00D911C91A8E6B0E04D915C91040F57
:1032A000151FAAE6B0E00D931C930E940B2DA8E613
:1032B000B0E00D9388278C93A8E6B0E00D911C91A7
:1032C000003150E0150711F00C945519A8E6B0E054
:1032D0000D911C91003150E0150711F00C947919F3
:1032E0000E940B2DA8E6B0E00D9388278C930C94D8
:1032F0006619A8E6B0E00D911C91073050E0150763
:1033000011F00C9487190E94712C0C94E217A8E616
:10331000B0E00D911C91033050E0150781E009F0F9
:1033200080E08F93A8E6B0E00D911C91073050E04B
:10333000150781E009F080E09F91892B8F93A8E623
:10334000B0E00D911C910B3050E0150781E009F0C1
:1033500080E09F91892B8F93A8E6B0E00D911C919E
:103360000C3050E0150781E009F080E09F91892B37
:103370008F93A8E6B0E00D911C910E3050E0150738
:1033800081E009F080E09F91892B8F93A8E6B0E05F
:103390000D911C910F3050E0150781E009F080E09D
:1033A0009F91892B882311F40C94D8190C945519EA
:1033B000E0E6F8E5A8E6B0E08D919C91A8E6B0E0E3
:1033C0000E94152E8FE713E00E94802CA0E2B8E047
:1033D000E8E6F0E00E94282E0E94622CE6E8FDE577
:1033E0000E946A2C8DE00E94DA2CAAE6B0E00D91D2
:1033F0001C91A8E6B0E04D915C91040F151FAAE660
:10340000B0E00D931C938FEB11E00E94802CE4EA56
:10341000FDE50E946A2C0E940B2DA8E6B0E00D93FA
:1034200088278C93A8E6B0E00D911C91003150E004
:10343000150711F00C940B1AA8E6B0E00D911C9141
:10344000033050E0150781E008F080E08F93A8E694
:10345000B0E00D911C91043050E0150781E009F0B7
:1034600080E09F91892B8F93A8E6B0E00D911C918D
:10347000053050E0150781E009F080E09F91892B2D
:103480008F93A8E6B0E00D911C91063050E015072F
:1034900081E009F080E09F91892B8F93A8E6B0E04E
:1034A0000D911C91073050E0150780E010F009F0F5
:1034B00081E09F91892B882311F40C94681A0E9453
:1034C0000B2DA8E6B0E00D9388278C930C941C1A62
:1034D000A8E6B0E00D911C91073050E0150711F0FF
:1034E0000C94781A0E94712C0C94E2170C948E1A8A
:1034F000033050E0150711F00C948E1A80916A0089
:1035000080937500E8E0F0E0A5E7B0E091E07BE7AC
:103510000E94902E0E94712C0C943D140C949723C1
:10352000023050E0150711F00C94931D0E94712C8D
:103530008FE711E00E94802CA0E2B8E0E6E7F0E01F
:103540000E94372E0E94622CE6E8FDE50E946A2C5C
:103550008FEB11E00E94802CEAE8FDE50E946A2CC6
:103560000E940B2DA8E6B0E00D9388278C93A8E667
:10357000B0E00D911C91003150E0150711F00C9452
:10358000B01AA8E6B0E00D911C91013050E015078B
:1035900018F011F00C94CE1A0C94D71A0E940B2D2F
:1035A000A8E6B0E00D9388278C930C94C11A0E9472
:1035B000712CA8E6B0E00D911C91013050E0150788
:1035C00011F00C94E51A0C943D148DE00E94DA2C55
:1035D00080E090E0AAE6B0E08D939C938FEB11E041
:1035E0000E94802CEAE9FDE50E946A2C8FE711E039
:1035F0000E94802C8CE00E94DA2C8DE00E94DA2C54
:103600000E940B2DA8E6B0E00D9388278C93A8E6C6
:10361000B0E00D911C91003150E0150711F00C94B1
:10362000001BA8E6B0E00D911C91003150E0150799
:1036300011F00C94241B0E940B2DA8E6B0E00D9312
:1036400088278C930C94111BA8E6B0E00D911C9177
:10365000033050E0150781E009F080E08F93A8E681
:10366000B0E00D911C91073050E0150781E009F0A2
:1036700080E09F91892B8F93A8E6B0E00D911C917B
:103680000B3050E0150781E009F080E09F91892B15
:103690008F93A8E6B0E00D911C910C3050E0150717
:1036A00081E009F080E09F91892B8F93A8E6B0E03C
:1036B0000D911C910E3050E0150781E009F080E07B
:1036C0009F91892B8F93A8E6B0E00D911C910F304C
:1036D00050E0150781E009F080E09F91892B882355
:1036E00011F40C94751B0C94001BE0E6F8E5A8E6B9
:1036F000B0E08D919C91A8E6B0E00E94152E8FE776
:1037000011E00E94802CA0E2B8E0E8E6F0E00E9420
:10371000282E0E94622CA8E6B0E00D911C9144E690
:1037200050E00E94452DA8E6B0E00D931C93AAE658
:10373000B0E00D911C91A8E6B0E04D915C91040FB2
:10374000151FAAE6B0E00D931C930E940B2DA8E66E
:10375000B0E00D9388278C93A8E6B0E00D911C9102
:10376000003150E0150711F00C94A51BA8E6B0E05D
:103770000D911C91003150E0150711F00C94C91BFC
:103780000E940B2DA8E6B0E00D9388278C930C9433
:10379000B61BA8E6B0E00D911C91073050E015076C
:1037A00011F00C94D71B0E94712C0C94E51AA8E61A
:1037B000B0E00D911C91033050E0150781E009F055
:1037C00080E08F93A8E6B0E00D911C91073050E0A7
:1037D000150781E009F080E09F91892B8F93A8E67F
:1037E000B0E00D911C910B3050E0150781E009F01D
:1037F00080E09F91892B8F93A8E6B0E00D911C91FA
:103800000C3050E0150781E009F080E09F91892B92
:103810008F93A8E6B0E00D911C910E3050E0150793
:1038200081E009F080E09F91892B8F93A8E6B0E0BA
:103830000D911C910F3050E0150781E009F080E0F8
:103840009F91892B882311F40C94281C0C94A51BA0
:10385000E0E6F8E5A8E6B0E08D919C91A8E6B0E03E
:103860000E94152E8FE712E00E94802CA0E2B8E0A3
:10387000E8E6F0E00E94282E0E94622CA8E6B0E064
:103880000D911C914AE050E00E94452DA8E6B0E061
:103890000D931C93AAE6B0E00D911C91A8E6B0E050
:1038A0004D915C91040F151FAAE6B0E00D931C9397
:1038B0000E940B2DA8E6B0E00D9388278C93A8E614
:1038C000B0E00D911C91003150E0150711F00C94FF
:1038D000581CA8E6B0E00D911C91003150E015078E
:1038E00011F00C947C1C0E940B2DA8E6B0E00D9307
:1038F00088278C930C94691CA8E6B0E00D911C916C
:10390000073050E0150711F00C948A1C0E94712CAE
:103910000C94E51AA8E6B0E00D911C91033050E03C
:10392000150781E009F080E08F93A8E6B0E00D91E3
:103930001C91073050E0150781E009F080E09F916D
:10394000892B8F93A8E6B0E00D911C910B3050E0CD
:10395000150781E009F080E09F91892B8F93A8E6FD
:10396000B0E00D911C910C3050E0150781E009F09A
:1039700080E09F91892B8F93A8E6B0E00D911C9178
:103980000E3050E0150781E009F080E09F91892B0F
:103990008F93A8E6B0E00D911C910F3050E0150711
:1039A00081E009F080E09F91892B882311F40C9429
:1039B000DB1C0C94581CE0E6F8E5A8E6B0E08D911D
:1039C0009C91A8E6B0E00E94152E8FE713E00E94BC
:1039D000802CA0E2B8E0E8E6F0E00E94282E0E94E9
:1039E000622CE6E8FDE50E946A2C8DE00E94DA2C4C
:1039F000AAE6B0E00D911C91A8E6B0E04D915C9173
:103A0000040F151FAAE6B0E00D931C938FEB11E095
:103A10000E94802CE4EAFDE50E946A2C0E940B2D96
:103A2000A8E6B0E00D9388278C93A8E6B0E00D914E
:103A30001C91003150E0150711F00C940E1DA8E602
:103A4000B0E00D911C91033050E0150781E008F0C3
:103A500080E08F93A8E6B0E00D911C91043050E017
:103A6000150781E009F080E09F91892B8F93A8E6EC
:103A7000B0E00D911C91053050E0150781E009F090
:103A800080E09F91892B8F93A8E6B0E00D911C9167
:103A9000063050E0150781E009F080E09F91892B06
:103AA0008F93A8E6B0E00D911C91073050E0150708
:103AB00080E010F009F081E09F91892B882311F4B8
:103AC0000C946B1D0E940B2DA8E6B0E00D93882787
:103AD0008C930C941F1DA8E6B0E00D911C9107304B
:103AE00050E0150711F00C947B1D0E94712C0C9472
:103AF000E51A0C94911D033050E0150711F00C9459
:103B0000911D80916A0080937600E9E0F0E0A6E7DD
:103B1000B0E091E07BE70E94902E0E94712C0C9403
:103B20003D140C949723043050E0150711F00C94C9
:103B300096200E94712C8FE711E00E94802CA0E259
:103B4000B8E0E7E7F0E00E94372E0E94622CE6E83A
:103B5000FDE50E946A2C8FEB11E00E94802CEAE8C0
:103B6000FDE50E946A2C0E940B2DA8E6B0E00D93A3
:103B700088278C93A8E6B0E00D911C91003150E0AD
:103B8000150711F00C94B31DA8E6B0E00D911C913F
:103B9000013050E0150718F011F00C94D11D0C9471
:103BA000DA1D0E940B2DA8E6B0E00D9388278C93B8
:103BB0000C94C41D0E94712CA8E6B0E00D911C91DC
:103BC000013050E0150711F00C94E81D0C943D14E1
:103BD0008DE00E94DA2C80E090E0AAE6B0E08D93C0
:103BE0009C938FEB11E00E94802CEAE9FDE50E9496
:103BF0006A2C8FE711E00E94802C8CE00E94DA2C66
:103C00008DE00E94DA2C0E940B2DA8E6B0E00D9307
:103C100088278C93A8E6B0E00D911C91003150E00C
:103C2000150711F00C94031EA8E6B0E00D911C914D
:103C3000003150E0150711F00C94271E0E940B2D47
:103C4000A8E6B0E00D9388278C930C94141EA8E688
:103C5000B0E00D911C91033050E0150781E009F0B0
:103C600080E08F93A8E6B0E00D911C91073050E002
:103C7000150781E009F080E09F91892B8F93A8E6DA
:103C8000B0E00D911C910B3050E0150781E009F078
:103C900080E09F91892B8F93A8E6B0E00D911C9155
:103CA0000C3050E0150781E009F080E09F91892BEE
:103CB0008F93A8E6B0E00D911C910E3050E01507EF
:103CC00081E009F080E09F91892B8F93A8E6B0E016
:103CD0000D911C910F3050E0150781E009F080E054
:103CE0009F91892B882311F40C94781E0C94031E49
:103CF000E0E6F8E5A8E6B0E08D919C91A8E6B0E09A
:103D00000E94152E8FE711E00E94802CA0E2B8E0FF
:103D1000E8E6F0E00E94282E0E94622CA8E6B0E0BF
:103D20000D911C9144E650E00E94452DA8E6B0E0BC
:103D30000D931C93AAE6B0E00D911C91A8E6B0E0AB
:103D40004D915C91040F151FAAE6B0E00D931C93F2
:103D50000E940B2DA8E6B0E00D9388278C93A8E66F
:103D6000B0E00D911C91003150E0150711F00C945A
:103D7000A81EA8E6B0E00D911C91003150E0150797
:103D800011F00C94CC1E0E940B2DA8E6B0E00D9310
:103D900088278C930C94B91EA8E6B0E00D911C9175
:103DA000073050E0150711F00C94DA1E0E94712CB8
:103DB0000C94E81DA8E6B0E00D911C91033050E092
:103DC000150781E009F080E08F93A8E6B0E00D913F
:103DD0001C91073050E0150781E009F080E09F91C9
:103DE000892B8F93A8E6B0E00D911C910B3050E029
:103DF000150781E009F080E09F91892B8F93A8E659
:103E0000B0E00D911C910C3050E0150781E009F0F5
:103E100080E09F91892B8F93A8E6B0E00D911C91D3
:103E20000E3050E0150781E009F080E09F91892B6A
:103E30008F93A8E6B0E00D911C910F3050E015076C
:103E400081E009F080E09F91892B882311F40C9484
:103E50002B1F0C94A81EE0E6F8E5A8E6B0E08D91D3
:103E60009C91A8E6B0E00E94152E8FE712E00E9418
:103E7000802CA0E2B8E0E8E6F0E00E94282E0E9444
:103E8000622CA8E6B0E00D911C914AE050E00E943F
:103E9000452DA8E6B0E00D931C93AAE6B0E00D9185
:103EA0001C91A8E6B0E04D915C91040F151FAAE6A5
:103EB000B0E00D931C930E940B2DA8E6B0E00D938B
:103EC00088278C93A8E6B0E00D911C91003150E05A
:103ED000150711F00C945B1FA8E6B0E00D911C9142
:103EE000003150E0150711F00C947F1F0E940B2D3C
:103EF000A8E6B0E00D9388278C930C946C1FA8E67D
:103F0000B0E00D911C91073050E0150711F00C94B2
:103F10008D1F0E94712C0C94E81DA8E6B0E00D9155
:103F20001C91033050E0150781E009F080E08F9389
:103F3000A8E6B0E00D911C91073050E0150781E034
:103F400009F080E09F91892B8F93A8E6B0E00D9156
:103F50001C910B3050E0150781E009F080E09F9143
:103F6000892B8F93A8E6B0E00D911C910C3050E0A6
:103F7000150781E009F080E09F91892B8F93A8E6D7
:103F8000B0E00D911C910E3050E0150781E009F072
:103F900080E09F91892B8F93A8E6B0E00D911C9152
:103FA0000F3050E0150781E009F080E09F91892BE8
:103FB000882311F40C94DE1F0C945B1FE0E6F8E5F7
:103FC000A8E6B0E08D919C91A8E6B0E00E94152E85
:103FD0008FE713E00E94802CA0E2B8E0E8E6F0E072
:103FE0000E94282E0E94622CE6E8FDE50E946A2CC1
:103FF0008DE00E94DA2CAAE6B0E00D911C91A8E6B3
:10400000B0E04D915C91040F151FAAE6B0E00D934E
:104010001C938FEB11E00E94802CE4EAFDE50E94E6
:104020006A2C0E940B2DA8E6B0E00D9388278C9394
:10403000A8E6B0E00D911C91003150E0150711F099
:104040000C941120A8E6B0E00D911C91033050E0D3
:10405000150781E008F080E08F93A8E6B0E00D91AD
:104060001C91043050E0150781E009F080E09F9139
:10407000892B8F93A8E6B0E00D911C91053050E09C
:10408000150781E009F080E09F91892B8F93A8E6C6
:10409000B0E00D911C91063050E0150781E009F069
:1040A00080E09F91892B8F93A8E6B0E00D911C9141
:1040B000073050E0150780E010F009F081E09F9193
:1040C000892B882311F40C946E200E940B2DA8E6F6
:1040D000B0E00D9388278C930C942220A8E6B0E0E2
:1040E0000D911C91073050E0150711F00C947E20C3
:1040F0000E94712C0C94E81D0C949420033050E025
:10410000150711F00C94942080916A008093770039
:10411000EAE0F0E0A7E7B0E091E07BE70E94902EB4
:104120000E94712C0C943D140C949723053050E0A0
:10413000150711F00C9497230E94712C8FE711E062
:104140000E94802CA0E2B8E0E8E7F0E00E94372E61
:104150000E94622CE6E8FDE50E946A2C8FEB11E0DC
:104160000E94802CEAE8FDE50E946A2C0E940B2D3B
:10417000A8E6B0E00D9388278C93A8E6B0E00D91F7
:104180001C91003150E0150711F00C94B620A8E600
:10419000B0E00D911C91013050E0150718F011F0BE
:1041A0000C94D4200C94DD200E940B2DA8E6B0E0E6
:1041B0000D9388278C930C94C7200E94712CA8E63D
:1041C000B0E00D911C91013050E0150711F00C94F6
:1041D000EB200C943D148DE00E94DA2C80E090E0FE
:1041E000AAE6B0E08D939C938FEB11E00E94802CA7
:1041F000EAE9FDE50E946A2C8FE711E00E94802C1D
:104200008CE00E94DA2C8DE00E94DA2C0E940B2DAB
:10421000A8E6B0E00D9388278C93A8E6B0E00D9156
:104220001C91003150E0150711F00C940621A8E60E
:10423000B0E00D911C91003150E0150711F00C9485
:104240002A210E940B2DA8E6B0E00D9388278C93BD
:104250000C941721A8E6B0E00D911C91033050E0BA
:10426000150781E009F080E08F93A8E6B0E00D919A
:104270001C91073050E0150781E009F080E09F9124
:10428000892B8F93A8E6B0E00D911C910B3050E084
:10429000150781E009F080E09F91892B8F93A8E6B4
:1042A000B0E00D911C910C3050E0150781E009F051
:1042B00080E09F91892B8F93A8E6B0E00D911C912F
:1042C0000E3050E0150781E009F080E09F91892BC6
:1042D0008F93A8E6B0E00D911C910F3050E01507C8
:1042E00081E009F080E09F91892B882311F40C94E0
:1042F0007B210C940621E0E6F8E5A8E6B0E08D917C
:104300009C91A8E6B0E00E94152E8FE711E00E9474
:10431000802CA0E2B8E0E8E6F0E00E94282E0E949F
:10432000622CA8E6B0E00D911C9144E650E00E949A
:10433000452DA8E6B0E00D931C93AAE6B0E00D91E0
:104340001C91A8E6B0E04D915C91040F151FAAE600
:10435000B0E00D931C930E940B2DA8E6B0E00D93E6
:1043600088278C93A8E6B0E00D911C91003150E0B5
:10437000150711F00C94AB21A8E6B0E00D911C914B
:10438000003150E0150711F00C94CF210E940B2D45
:10439000A8E6B0E00D9388278C930C94BC21A8E686
:1043A000B0E00D911C91073050E0150711F00C940E
:1043B000DD210E94712C0C94EB20A8E6B0E00D9159
:1043C0001C91033050E0150781E009F080E08F93E5
:1043D000A8E6B0E00D911C91073050E0150781E090
:1043E00009F080E09F91892B8F93A8E6B0E00D91B2
:1043F0001C910B3050E0150781E009F080E09F919F
:10440000892B8F93A8E6B0E00D911C910C3050E001
:10441000150781E009F080E09F91892B8F93A8E632
:10442000B0E00D911C910E3050E0150781E009F0CD
:1044300080E09F91892B8F93A8E6B0E00D911C91AD
:104440000F3050E0150781E009F080E09F91892B43
:10445000882311F40C942E220C94AB21E0E6F8E5AD
:10446000A8E6B0E08D919C91A8E6B0E00E94152EE0
:104470008FE712E00E94802CA0E2B8E0E8E6F0E0CE
:104480000E94282E0E94622CA8E6B0E00D911C919B
:104490004AE050E00E94452DA8E6B0E00D931C9341
:1044A000AAE6B0E00D911C91A8E6B0E04D915C91B8
:1044B000040F151FAAE6B0E00D931C930E940B2D6C
:1044C000A8E6B0E00D9388278C93A8E6B0E00D91A4
:1044D0001C91003150E0150711F00C945E22A8E603
:1044E000B0E00D911C91003150E0150711F00C94D3
:1044F00082220E940B2DA8E6B0E00D9388278C93B2
:104500000C946F22A8E6B0E00D911C91073050E0AA
:10451000150711F00C9490220E94712C0C94EB2042
:10452000A8E6B0E00D911C91033050E0150781E042
:1045300009F080E08F93A8E6B0E00D911C91073060
:1045400050E0150781E009F080E09F91892B8F935F
:10455000A8E6B0E00D911C910B3050E0150781E00A
:1045600009F080E09F91892B8F93A8E6B0E00D9130
:104570001C910C3050E0150781E009F080E09F911C
:10458000892B8F93A8E6B0E00D911C910E3050E07E
:10459000150781E009F080E09F91892B8F93A8E6B1
:1045A000B0E00D911C910F3050E0150781E009F04B
:1045B00080E09F91892B882311F40C94E1220C94C4
:1045C0005E22E0E6F8E5A8E6B0E08D919C91A8E6D1
:1045D000B0E00E94152E8FE713E00E94802CA0E22D
:1045E000B8E0E8E6F0E00E94282E0E94622CE6E89F
:1045F000FDE50E946A2C8DE00E94DA2CAAE6B0E06C
:104600000D911C91A8E6B0E04D915C91040F151F2F
:10461000AAE6B0E00D931C938FEB11E00E94802C72
:10462000E4EAFDE50E946A2C0E940B2DA8E6B0E0AA
:104630000D9388278C93A8E6B0E00D911C91003172
:1046400050E0150711F00C941423A8E6B0E00D918A
:104650001C91033050E0150781E008F080E08F9353
:10466000A8E6B0E00D911C91043050E0150781E000
:1046700009F080E09F91892B8F93A8E6B0E00D911F
:104680001C91053050E0150781E009F080E09F9112
:10469000892B8F93A8E6B0E00D911C91063050E075
:1046A000150781E009F080E09F91892B8F93A8E6A0
:1046B000B0E00D911C91073050E0150780E010F03C
:1046C00009F081E09F91892B882311F40C947123C8
:1046D0000E940B2DA8E6B0E00D9388278C930C94D4
:1046E0002523A8E6B0E00D911C91073050E0150796
:1046F00011F00C9481230E94712C0C94EB200C94EB
:104700009723033050E0150711F00C949723809104
:104710006A0080937800EBE0F0E0A8E7B0E091E079
:104720007BE70E94902E0E94712C0C943D148BB755
:1047300080648BBF7894A99A8FE711E00E94802C47
:10474000E6EDFDE50E946A2C00916700013011F052
:104750000C94AF23EAE0F0E00E94832CAD9AEEE6E1
:10476000F0E0D080EE24FF2400270E94732DA9E7FB
:10477000B0E00E94A42DEFE6F0E0D080EE24FF240C
:1047800000270E94732DADE7B0E00E94A42DE0E762
:10479000F0E0D080EE24FF2400270E94732DA1E8D2
:1047A000B0E00E94A42DE1E7F0E0D080EE24FF24E9
:1047B00000270E94732DA5E8B0E00E94A42DE2E737
:1047C000F0E0D080EE24FF2400270E94732DA9E89A
:1047D000B0E00E94A42DE3E7F0E0D080EE24FF24B7
:1047E00000270E94732DADE8B0E00E94A42DE4E7FD
:1047F000F0E0D080EE24FF2400270E94732DA1E971
:10480000B0E00E94A42DE5E7F0E0D080EE24FF2484
:1048100000270E94732DA5E9B0E00E94A42DE6E7D1
:10482000F0E0D080EE24FF2400270E94732DA9E938
:10483000B0E00E94A42DE7E7F0E0D080EE24FF2452
:1048400000270E94732DADE9B0E00E94A42DE8E797
:10485000F0E0D080EE24FF2400270E94732DA1EA0F
:10486000B0E00E94A42D4398E3E6F0E00E944F2DB3
:10487000E0E5FDE50E94EA2D0E94F32D18F011F00D
:104880000C9444240C94742500916700013011F0BD
:104890000C946D24E3E6F0E00E944F2DE9E7F0E090
:1048A0000E94542D0E94F32D18F011F00C945C24FA
:1048B0000E94AD260C946B24E3E6F0E00E944F2D9D
:1048C000EDE7F0E00E94542D0E94F32D10F40C94BB
:1048D0006B240E94C6270C94742500916700023057
:1048E00011F00C94E224E3E6F0E00E944F2DE1E8A1
:1048F000F0E00E94542D0E94F32D81E010F009F0A9
:1049000080E08F93E3E6F0E00E944F2DE5E8F0E0D1
:104910000E94542D0E94F32D80E010F009F081E0F8
:104920009F918923882311F40C949A240E94E027F4
:104930000C94E024E3E6F0E00E944F2DE5E8F0E07F
:104940000E94542D0E94F32D18F011F00C94AC2409
:104950000E9402280C94E024E3E6F0E00E944F2D30
:10496000E9E8F0E00E94542D0E94F32D81E008F464
:1049700080E08F93E3E6F0E00E944F2DEDE8F0E059
:104980000E94542D0E94F32D81E008F080E09F9159
:104990008923882311F40C94D1240E9405290C94B6
:1049A000E024E3E6F0E00E944F2DEDE8F0E00E9405
:1049B000542D0E94F32D10F40C94E0240E948B29B6
:1049C0000C947425E3E6F0E00E944F2DE1E9F0E05D
:1049D0000E94542D0E94F32D81E010F009F080E038
:1049E0008F93E3E6F0E00E944F2DE5E9F0E00E94AE
:1049F000542D0E94F32D80E010F009F081E09F918A
:104A00008923882311F40C9409250E94A5290C946C
:104A10007425E3E6F0E00E944F2DE5E9F0E00E9406
:104A2000542D0E94F32D18F011F00C941B250E94B8
:104A3000C7290C947425E3E6F0E00E944F2DE9E9C4
:104A4000F0E00E94542D0E94F32D81E008F480E0F4
:104A50008F93E3E6F0E00E944F2DEDE9F0E00E9435
:104A6000542D0E94F32D81E008F080E09F9189236E
:104A7000882311F40C9440250E94CA2A0C947425B2
:104A8000E3E6F0E00E944F2DEDE9F0E00E94542DA6
:104A90000E94F32D81E008F480E08F93E3E6F0E0DC
:104AA0000E944F2DE1EAF0E00E94542D0E94F32D68
:104AB00081E008F080E09F918923882311F40C9411
:104AC00065250E94502B0C947425E3E6F0E00E94CB
:104AD0004F2DE1EAF0E00E94542D0E94F32D10F4D6
:104AE0000C9474250E94D62B8AEF90E00E94362DFC
:104AF00080E090E090934D0080934C0080E08093A4
:104B00006000A89A00000000000000000000000003
:104B10000000000000000000000000000000000095
:104B20000000000000000000000000000000000085
:104B30000000000000000000000000000000000075
:104B40000000000000000000000000000000000065
:104B50000000000000000000000000000000000055
:104B60000000000000000000000000000000000045
:104B70000000000000000000000000000000000035
:104B80000000000000000000000000000000000025
:104B90000000000000000000000000000000000015
:104BA0000000000000000000000000000000000005
:104BB00000000000000000000000000000000000F5
:104BC00000000000000000000000000000000000E5
:104BD00000000000000000000000000000000000D5
:104BE00000000000000000000000000000000000C5
:104BF00000000000000000000000000000000000B5
:104C0000000000000000000085B391E0892785BB0B
:104C1000A0E6B0E08C918F5F8C9300916000083229
:104C200011F00C94822582E08EBD439AACE4B0E092
:104C30000D911C910C3D5FEF150710F40C9422268A
:104C40000C94332400916000093210F40C942A264D
:104C50000C9433240C941626F894FFCF0F921F92D5
:104C60002F923F924F925F927F92AF92BF920F939B
:104C70001F932F933F934F935F936F937F938F93E4
:104C80009F93AF93BF93CF93DF93EF93FF938FB730
:104C90008F938EB5887F8EBDACE4B0E08D919C91F2
:104CA000A1E6B0E08D939C93E4E5FDE50E94EA2D3A
:104CB000E1E6F0E0D190E080FF2400270E94732D10
:104CC0000E94B62DEDE0F0E0A3E6B0E00E94812E58
:104CD000E3E6F0E00E944F2DE0E5FDE50E94EA2DBD
:104CE0000E94F32D18F011F00C9478260C948C2669
:104CF0008FEB11E00E94802CA0E2B8E0E1E6F0E04A
:104D00000E94282E0E94622C8FEB16E00E94802CBD
:104D1000E6EEFDE50E946A2CA0E6B0E08C918F5F84
:104D20008C938F918FBFFF91EF91DF91CF91BF91C6
:104D3000AF919F918F917F916F915F914F913F9133
:104D40002F911F910F91BF90AF907F905F904F90E8
:104D50003F902F901F900F90189500916C0000309D
:104D600011F00C94C527A9988FE711E00E94802CC0
:104D7000E2EFFDE50E946A2C80916D008F778093B1
:104D80006D00AE9A8E9AE4EFF1E088EE93E0019721
:104D9000969A0E94FE2C96980E94FE2C482F492B32
:104DA000B1F7AE988898ADE6B0E09C9196FF04C04C
:104DB000809910C09F7B9C93809B0CC089E19F933E
:104DC00099270E94362D9F91809B04C090649C93EC
:104DD0000C940827E1E0F0E00E94832C8898ADE66F
:104DE000B0E09C9196FF04C0809910C09F7B9C937B
:104DF000809B0CC089E19F9399270E94362D9F913B
:104E0000809B04C090649C930C9408270C94C1264A
:104E10000027ADE6B0E08C9187FB0EF401E041E0A5
:104E2000041711F00C941B2780916D008F778093ED
:104E30006D000C94EA26969AAB9A8FE711E00E94D7
:104E4000802CE2E0FEE50E946A2C8FE711E00E94D0
:104E5000802CE4E1FEE50E946A2CE5E0F0E00E948F
:104E6000832C80916D008F7780936D00809BFECFA7
:104E70000027ADE6B0E08C9187FB0EF401E041E045
:104E8000041711F00C9446270C942D27AD98AB987D
:104E90008FE711E00E94802CE2EFFDE50E946A2C72
:104EA00080916D008F7780936D00AE9A8E9AE4EFBB
:104EB000F1E088EE93E00197969A0E94FE2C969876
:104EC0000E94FE2C482F492BB1F7AE988898ADE68A
:104ED000B0E09C9196FF04C0809910C09F7B9C938A
:104EE000809B0CC089E19F9399270E94362D9F914A
:104EF000809B04C090649C930C949C27E1E0F0E0BC
:104F00000E94832C8898ADE6B0E09C9196FF04C087
:104F1000809910C09F7B9C93809B0CC089E19F93DC
:104F200099270E94362D9F91809B04C090649C938A
:104F30000C949C270C9455270027ADE6B0E08C918B
:104F400087FB0EF401E041E0041711F00C94AF2749
:104F500080916D008F7780936D000C947E27AC9AC2
:104F60008FE711E00E94802CE2E0FEE50E946A2CAF
:104F70008FE711E00E94802CECE1FEE50E946A2C94
:104F8000ACE6B0E08C918F5F8C93089500916C003B
:104F9000013011F00C94DF27AC988FE711E00E94EC
:104FA000802CE8E2FEE50E946A2C8FE711E00E9467
:104FB000802CE4E3FEE50E946A2C0C942C260895D4
:104FC00000916C00003011F00C940128A9988FE733
:104FD00011E00E94802CEEE3FEE50E946A2CE5E0E1
:104FE000F0E00E94832CAA9A8FE711E00E94802CA7
:104FF000EEE4FEE50E946A2CACE6B0E08C918F5F97
:105000008C93089500916C00013011F00C940429E8
:10501000AA988FE711E00E94802CE2EFFDE50E9444
:105020006A2C80916D008F7780936D00AE9A8E9A76
:10503000E4EFF1E088EE93E00197969A0E94FE2C4F
:1050400096980E94FE2C482F492BB1F7AE9888986D
:10505000ADE6B0E09C9196FF04C0809910C09F7BA4
:105060009C93809B0CC089E19F9399270E94362DC9
:105070009F91809B04C090649C930C945D28E1E018
:10508000F0E00E94832C8898ADE6B0E09C9196FFFA
:1050900004C0809910C09F7B9C93809B0CC089E1C9
:1050A0009F9399270E94362D9F91809B04C0906406
:1050B0009C930C945D280C9416280027ADE6B0E074
:1050C0008C9187FB0EF401E041E0041711F00C9481
:1050D000702880916D008F7780936D000C943F282D
:1050E000969AAB9A8FE711E00E94802CE2E0FEE5F1
:1050F0000E946A2C8FE711E00E94802CE4E1FEE51B
:105100000E946A2CECE3F0E00E94832CAB988FE7BE
:1051100011E00E94802CE2EFFDE50E946A2C809154
:105120006D008F7780936D00AE9A8E9AE4EFF1E078
:1051300088EE93E00197969A0E94FE2C96980E9422
:10514000FE2C482F492BB1F7AE988898ADE6B0E019
:105150009C9196FF04C0809910C09F7B9C93809B7C
:105160000CC089E19F9399270E94362D9F91809BC7
:1051700004C090649C930C94DB28E1E0F0E00E9472
:10518000832C8898ADE6B0E09C9196FF04C080998E
:1051900010C09F7B9C93809B0CC089E19F939927B3
:1051A0000E94362D9F91809B04C090649C930C9428
:1051B000DB280C9494280027ADE6B0E08C9187FBA7
:1051C0000EF401E041E0041711F00C94EE288091F8
:1051D0006D008F7780936D000C94BD28AC9A8FE79B
:1051E00011E00E94802CE2E0FEE50E946A2C8FE72D
:1051F00011E00E94802CECE1FEE50E946A2CACE6F6
:10520000B0E08C918F5F8C93089500916C00023018
:1052100011F00C948A29AC988FE711E00E94802C41
:10522000E2EFFDE50E946A2C80916D008F778093FC
:105230006D00AE9A8E9AE4EFF1E088EE93E001976C
:10524000969A0E94FE2C96980E94FE2C482F492B7D
:10525000B1F7AE988898ADE6B0E09C9196FF04C097
:10526000809910C09F7B9C93809B0CC089E19F9389
:1052700099270E94362D9F91809B04C090649C9337
:105280000C946029E1E0F0E00E94832C8898ADE660
:10529000B0E09C9196FF04C0809910C09F7B9C93C6
:1052A000809B0CC089E19F9399270E94362D9F9186
:1052B000809B04C090649C930C9460290C941929E1
:1052C0000027ADE6B0E08C9187FB0EF401E041E0F1
:1052D000041711F00C94732980916D008F778093DF
:1052E0006D000C944229969AAC9A8FE711E00E94C7
:1052F000802CE2E0FEE50E946A2C8FE711E00E941C
:10530000802CECE1FEE50E946A2CACE6B0E08C91CA
:105310008F5F8C93089500916C00033011F00C9412
:10532000A429AC988FE711E00E94802CE8E2FEE50A
:105330000E946A2C8FE711E00E94802CE4E3FEE5D6
:105340000E946A2C0C942C26089500916C00003069
:1053500011F00C94C629A9988FE711E00E94802CC7
:10536000EEE3FEE50E946A2CE5E0F0E00E94832C6B
:10537000AA9A8FE711E00E94802CEEE4FEE50E94DD
:105380006A2CACE6B0E08C918F5F8C93089500910D
:105390006C00013011F00C94C92AAA988FE711E033
:1053A0000E94802CE2EFFDE50E946A2C80916D0046
:1053B0008F7780936D00AE9A8E9AE4EFF1E088EEDD
:1053C00093E00197969A0E94FE2C96980E94FE2CDC
:1053D000482F492BB1F7AE988898ADE6B0E09C9184
:1053E00096FF04C0809910C09F7B9C93809B0CC04B
:1053F00089E19F9399270E94362D9F91809B04C03D
:1054000090649C930C94222AE1E0F0E00E94832CAB
:105410008898ADE6B0E09C9196FF04C0809910C0DA
:105420009F7B9C93809B0CC089E19F9399270E944E
:10543000362D9F91809B04C090649C930C94222AEB
:105440000C94DB290027ADE6B0E08C9187FB0EF4CD
:1054500001E041E0041711F00C94352A80916D00B1
:105460008F7780936D000C94042A969AAB9A8FE7FD
:1054700011E00E94802CE2E0FEE50E946A2C8FE79A
:1054800011E00E94802CE4E1FEE50E946A2CECE32E
:10549000F0E00E94832CAB988FE711E00E94802CF3
:1054A000E2EFFDE50E946A2C80916D008F7780937A
:1054B0006D00AE9A8E9AE4EFF1E088EE93E00197EA
:1054C000969A0E94FE2C96980E94FE2C482F492BFB
:1054D000B1F7AE988898ADE6B0E09C9196FF04C015
:1054E000809910C09F7B9C93809B0CC089E19F9307
:1054F00099270E94362D9F91809B04C090649C93B5
:105500000C94A02AE1E0F0E00E94832C8898ADE69C
:10551000B0E09C9196FF04C0809910C09F7B9C9343
:10552000809B0CC089E19F9399270E94362D9F9103
:10553000809B04C090649C930C94A02A0C94592ADC
:105540000027ADE6B0E08C9187FB0EF401E041E06E
:10555000041711F00C94B32A80916D008F7780931B
:105560006D000C94822AAC9A8FE711E00E94802C87
:10557000E2E0FEE50E946A2C8FE711E00E94802C99
:10558000ECE1FEE50E946A2CACE6B0E08C918F5F06
:105590008C93089500916C00023011F00C944F2B05
:1055A000AC988FE711E00E94802CE2EFFDE50E94AD
:1055B0006A2C80916D008F7780936D00AE9A8E9AE1
:1055C000E4EFF1E088EE93E00197969A0E94FE2CBA
:1055D00096980E94FE2C482F492BB1F7AE988898D8
:1055E000ADE6B0E09C9196FF04C0809910C09F7B0F
:1055F0009C93809B0CC089E19F9399270E94362D34
:105600009F91809B04C090649C930C94252BE1E0B7
:10561000F0E00E94832C8898ADE6B0E09C9196FF64
:1056200004C0809910C09F7B9C93809B0CC089E133
:105630009F9399270E94362D9F91809B04C0906470
:105640009C930C94252B0C94DE2A0027ADE6B0E049
:105650008C9187FB0EF401E041E0041711F00C94EB
:10566000382B80916D008F7780936D000C94072B01
:10567000969AAC9A8FE711E00E94802CE2E0FEE55A
:105680000E946A2C8FE711E00E94802CECE1FEE57D
:105690000E946A2CACE6B0E08C918F5F8C930895E9
:1056A00000916C00033011F00C94D52BAC988FE76F
:1056B00011E00E94802CE2EFFDE50E946A2C8091AF
:1056C0006D008F7780936D00AE9A8E9AE4EFF1E0D3
:1056D00088EE93E00197969A0E94FE2C96980E947D
:1056E000FE2C482F492BB1F7AE988898ADE6B0E074
:1056F0009C9196FF04C0809910C09F7B9C93809BD7
:105700000CC089E19F9399270E94362D9F91809B21
:1057100004C090649C930C94AB2BE1E0F0E00E94F9
:10572000832C8898ADE6B0E09C9196FF04C08099E8
:1057300010C09F7B9C93809B0CC089E19F9399270D
:105740000E94362D9F91809B04C090649C930C9482
:10575000AB2B0C94642B0027ADE6B0E08C9187FB5B
:105760000EF401E041E0041711F00C94BE2B80917F
:105770006D008F7780936D000C948D2B969AAC9A68
:105780008FE711E00E94802CE2E0FEE50E946A2C87
:105790008FE711E00E94802CECE1FEE50E946A2C6C
:1057A000ACE6B0E08C918F5F8C93089500916C0013
:1057B000043011F00C94EF2BAC988FE711E00E94AD
:1057C000802CE8E2FEE50E946A2C8FE711E00E943F
:1057D000802CE4E3FEE50E946A2C0C942C260895AC
:1057E0000F921F922F923F924F925F927F92AF92B1
:1057F000BF920F931F932F933F934F935F936F939A
:105800007F938F939F93AF93BF93CF93DF93EF9348
:10581000FF938FB78F93AF9A809BFECFAF98809105
:105820006D00806880936D008F918FBFFF91EF9125
:10583000DF91CF91BF91AF919F918F917F916F91A8
:105840005F914F913F912F911F910F91BF90AF901A
:105850007F905F904F903F902F901F900F901895E2
:105860000100020003000000040005000600000023
:105870000700080009000000000000000000000010
:1058800005D00E94452D00FC0CD008950024E8941A
:1058900057FF02C009D0689400F80BD010F801241B
:1058A000089502D009D00895509540954F5F5F4FFD
:1058B0000895E89417FF0895009510950F5F1F4F06
:1058C00068940895A0E2B8E08D91882311F06CD01F
:1058D000FBCF08950E94E62D802D11F065D0FACF00
:1058E000089581E067D015D080E864C08FE721304B
:1058F00039F08FEB223021F08FE8233009F08FEC64
:10590000810F0C94DA2C88EE93E0B0D03197D9F760
:10591000089583E09927AAC08AEF90E00E94362D6F
:10592000BF9ABE9ABD9ABC9AB89AB99AC19885E0B6
:1059300090E00E94362DC098C798C698C59AC49A20
:10594000C09AEF93FF93E8E2F1E00E94FB2CFF91F5
:10595000EF91C09888D0C09AEF93FF93E8E2F1E00E
:105960000E94FB2CFF91EF91C0987DD0C09AEF93DD
:10597000FF93E8E2F1E00E94FB2CFF91EF91C098C9
:1059800072D0C498C09AEF93FF93E8E2F1E00E94CE
:10599000FB2CFF91EF91C09866D088E20BD08EE08F
:1059A00009D086E007D00895C19A829505D004D029
:1059B0005AD00895C198F9CF859510F4C49A01C0C2
:1059C000C498859510F4C59A01C0C598859510F4C2
:1059D000C69A01C0C698859510F4C79A01C0C798A9
:1059E000C09AEF93FF93E8E2F1E00E94FB2CFF9155
:1059F000EF91C09808953197F1F70895AE2FBF2F1A
:105A000011974A2F4B2BE1F70895689462F8089597
:105A1000E89462F8089500E18FEF8BBB8FE08ABBBA
:105A200080EF8BBB84E18A95F1F7CC9B00E0CD9BA6
:105A300004E0CE9B08E0CF9B0CE080EF8ABB8FE0B8
:105A40008BBB84E18A95F1F78827C89B80E0C99BCE
:105A500081E0CA9B82E0CB9B83E0080F84E690E064
:105A60000E94362D089581E090E000C0EF93FF93EF
:105A7000EE27E82BE92B31F0E8EBFBE03197F1F76B
:105A80000197D1F7FF91EF9108950F92B801469FCA
:105A90008001479F100D569F100D0F900895D190D3
:105AA000E190F190019108952191319141915191AD
:105AB0000895102F90E8FF0C001F0927990FF79405
:105AC0001078652F90E8440F551F5927990F479577
:105AD000607800380895FF0C90E89027110F979593
