:100000000C942A001895000018950000189500001F
:10001000189500001895000018950000189500002C
:10002000189500000C9479021895000018950000AE
:10003000189500001895000018950000189500000C
:1000400018950000189500001895000018950000FC
:10005000189500008FE58DBFC0E4E8E34E2E88E0E0
:100060008EBFD8E0F8E05F2EEEEFF7E0A0E6B0E05C
:1000700088278D933197E9F70E94A602662480E0D5
:100080008FBD85E08EBD80EF8ABBB89AC09ABA9AC0
:10009000C29ABB9AC398BC9AC4980E9498028CE0FA
:1000A0000E94F4028EB5887F8EBD789489B78460F3
:1000B00089BFB998AAE6B0E09C9197FF04C0B199B6
:1000C00010C09F779C93B19B0CC089E19F939927A7
:1000D0000E9421039F91B19B04C090689C930C9453
:1000E00073000C945900EAE0F0E00E949D02C2986F
:1000F00084EF91E00E942103C29A80E090E0909307
:100100004D0080934C0085E08EBDE1E0F0E0A6E676
:10011000B0E091E00E944A03009166000F3F11F0A9
:100120000C94AE00C39A84EF91E00E942103C3981F
:100130008AEF90E00E942103C39A84EF91E00E942D
:100140002103C3988AEF90E00E942103C39A84EFB1
:1001500091E00E942103C3980C94D801C39A84EFC4
:1001600091E00E942103C39880E080936000BD98D5
:10017000AAE6B0E09C9196FF04C0B59910C09F7BA1
:100180009C93B59B0CC089E19F9399270E94210302
:100190009F91B59B04C090649C930E94D1000C94E5
:1001A000B700A0E6B0E08C918F5F8C930091600067
:1001B000013011F00C94E100A2E6B0E089B38C9319
:1001C000089500916000023011F00C94EC00A3E659
:1001D000B0E089B38C93089500916000033011F072
:1001E0000C94F700A4E6B0E089B38C930895A5E6DB
:1001F000B0E089B38C93E1E0F0E0A6E6B0E091E0F6
:100200000E944A03E2E0F0E0A7E6B0E091E00E943D
:100210004A03E3E0F0E0A8E6B0E091E00E944A0380
:10022000E4E0F0E0A9E6B0E091E00E944A034091EA
:10023000660000916200041711F00C944101409196
:10024000670000916300041711F00C943F01409186
:10025000680000916400041711F00C943D01409176
:10026000690000916500041711F00C943B010C9497
:1002700061010C943D010C9443010C9443010C94D6
:1002800043010C944301C39A8AEF90E00E9421033A
:10029000C3988DE790E00E942103C39A8AEF90E013
:1002A0000E942103C39880E08093620080E08093E5
:1002B000630080E08093640080E0809365000C948C
:1002C000B400C39AE1E0F0E00E949D02C398BD989B
:1002D000AAE6B0E09C9196FF04C0B59910C09F7B40
:1002E0009C93B59B0CC089E19F9399270E942103A1
:1002F0009F91B59B04C090649C930C9481010C94D5
:100300006701A0E6B0E089B38C93009160000130F2
:1003100011F00C948D010E949F0100916000023049
:1003200011F00C9495010C94CF0100916000033002
:1003300011F00C949D010C9460020C948101C39AFD
:1003400084EF91E00E942103C398A0E6B0E089B356
:100350008C93009160000C3011F00C94BB01C49A96
:10036000E3E0F0E00E949D02C39AE1E0F0E00E9429
:100370009D02C3980895009160000B3011F00C9419
:10038000CD01C498E3E0F0E00E949D02C39AE1E051
:10039000F0E00E949D02C39808950C94A501C39AB1
:1003A00084EF91E00E942103C39880E08093600075
:1003B000BD98AAE6B0E09C9196FF04C0B59910C024
:1003C0009F7B9C93B59B0CC089E19F9399270E94CA
:1003D00021039F91B59B04C090649C930E94F201FD
:1003E0000C94D801A0E6B0E08C918F5F8C930091C3
:1003F0006000013011F00C940202A2E6B0E089B373
:100400008C93089500916000023011F00C940D025D
:10041000A3E6B0E089B38C930895009160000330A7
:1004200011F00C941802A4E6B0E089B38C930895FF
:10043000A5E6B0E089B38C93C39A84EF91E00E9463
:100440002103C398A0E6B0E089B38C9300916000CB
:100450000C3011F00C945E02809162008093660073
:1004600080916300809367008091640080936800AE
:100470008091650080936900E1E0F0E0A6E6B0E0DD
:1004800091E07BE70E943903E2E0F0E0A7E6B0E00C
:1004900091E07BE70E943903E3E0F0E0A8E6B0E0FA
:1004A00091E07BE70E943903E4E0F0E0A9E6B0E0E8
:1004B00091E07BE70E9439030C9461010C942202C5
:1004C000C39A84EF91E00E942103C398A0E6B0E0B4
:1004D00089B38C93009160000B3011F00C9477027B
:1004E000C29884EF91E00E942103C29AC0980C94B4
:1004F0006602A1E6B0E08C918F5F8C930091610061
:10050000093011F00C949502C29884EF91E00E949A
:100510002103C29AE1E0F0E00E949D02C29884EFBC
:1005200091E00E942103C29AC0981895F894FFCFD9
:1005300081E05AD008D080E857C088EE93E081D09F
:100540003197D9F7089583E099277BC08AEF90E02F
:100550000E942103BF9ABE9ABD9ABC9AB99AB89AD2
:10056000C09885E090E00E942103C198C798C69882
:10057000C59AC49AC19AEF93FF93E4ECF0E00E940D
:100580001503FF91EF91C19859D0C19AEF93FF9352
:10059000E4ECF0E00E941503FF91EF91C1984ED07A
:1005A000C19AEF93FF93E4ECF0E00E941503FF91F2
:1005B000EF91C19843D0C498C19AEF93FF93E4ECB4
:1005C000F0E00E941503FF91EF91C19837D088E2C7
:1005D0000BD08EE009D086E007D00895C09A8295AE
:1005E00005D004D02BD00895C098F9CF859510F48C
:1005F000C49A01C0C498859510F4C59A01C0C598E5
:10060000859510F4C69A01C0C698859510F4C79ACE
:1006100001C0C798C19AEF93FF93E4ECF0E00E9409
:100620001503FF91EF91C19808953197F1F708955F
:10063000689462F80895E89462F8089581E090E083
:1006400000C0EF93FF93EE27E82BE92B31F0E0EDAC
:10065000F7E03197F1F70197D1F7FF91EF91089506
:10066000E199FECFEEBBFFBB3196089591E001C04A
:1006700092E07B3751F47FB7F894F2DF8D918DBB18
:10068000E29AE19A9A95C9F77FBF7727089591E09A
:1006900001C092E0E5DFE09A8DB38D939A95D1F792
:0206A0000895BB
:00000001FF
