:100000000C942A000C94F7000C948B0018950000B7
:10001000189500001895000018950000189500002C
:100020001895000018950000189500000C943601F2
:10003000189500001895000018950000189500000C
:1000400018950000189500001895000018950000FC
:10005000189500008FE58DBFC0E4E8E34E2E88E0E0
:100060008EBFD8E0F8E05F2EEEEFF7E0A0E6B0E05C
:1000700088278D933197E9F70E943402662480E047
:100080008FBD83E08EBD85E083BF85B78C6085BF63
:1000900085B78C7F826085BFE4EBF0E080E40E944E
:1000A000820258E0C895802D0E947C0231965A95B4
:1000B000C9F704C01C141C20202020208CE00E94C2
:1000C00082020E941F0280E090E090934D00809396
:1000D0004C0080E090E0A1E6B0E08D939C9380E03E
:1000E00090E0A3E6B0E08D939C9380E08093600065
:1000F00078948BB780688BBF8BB780648BBF89B7D0
:10010000816089BF882783BF80E08093520085E0AB
:1001100083BF0C9489000F921F922F923F924F92AF
:100120005F927F92AF92BF920F931F932F933F9353
:100130004F935F936F937F938F939F93AF93BF93EF
:10014000CF93DF93EF93FF938FB78F93ACE4B0E03F
:100150008D919C91A3E6B0E08D939C938EB5887FA2
:100160008EBD80E090E090934D0080934C0083E042
:100170008EBDE3E6F0E0D190E080FF2400270E94EE
:10018000CF030E9405042F933F934F935F93E1E6C3
:10019000F0E0D190E080FF2400270E94CF035F9120
:1001A0004F913F912F910E942004EDE0F0E0A5E6F1
:1001B000B0E00E9427058F918FBFFF91EF91DF91F3
:1001C000CF91BF91AF919F918F917F916F915F91EF
:1001D0004F913F912F911F910F91BF90AF907F90C2
:1001E0005F904F903F902F901F900F9018950F9217
:1001F0001F922F923F924F925F927F92AF92BF9247
:100200000F931F932F933F934F935F936F937F931E
:100210008F939F93AF93BF93CF93DF93EF93FF930E
:100220008FB78F93ACE4B0E08D919C91A1E6B0E0E4
:100230008D939C938F918FBFFF91EF91DF91CF9121
:10024000BF91AF919F918F917F916F915F914F91EE
:100250003F912F911F910F91BF90AF907F905F9032
:100260004F903F902F901F900F901895A0E6B0E010
:100270008C918F5F8C9300916000043111F00C948D
:100280000F0280E080936000E5E6F0E00E94AB039F
:10029000E4EEFBE00E9408050E94110510F40C94A6
:1002A0006101E8EEFBE00E940805E5E6F0E00E944F
:1002B000AB030E94B604EDE0F0E0A5E6B0E00E94DA
:1002C0002705E5E6F0E00E94AB03E4EEFBE00E94C8
:1002D00008050E94110510F00C948E01E5E6F0E08F
:1002E0000E94AB03ECEEFBE00E9408050E941105A2
:1002F00018F011F00C947E010C948E01E0EFFBE0FD
:100300000E940805E5E6F0E00E94AB030E94B604F7
:10031000EDE0F0E0A5E6B0E00E942705E4EFFBE0A9
:100320000E940805E5E6F0E00E94AB030E94A704E6
:10033000EDE0F0E0A9E6B0E00E942705E8EFFBE081
:100340000E940805E9E6F0E00E94AB030E94200449
:10035000EDE0F0E0ADE6B0E00E942705EDE6F0E06C
:100360000E94B305EDE0F0E0A1E7B0E00E942705B0
:10037000E1E7F0E00E947B05EDE0F0E0A1E7B0E00E
:100380000E9427050027A0E3B0E08C9186FB0EF4C5
:1003900001E041E0041711F00C94EE01ECEFFBE0FA
:1003A0000E940805E1E7F0E00E94AB030E94A70469
:1003B000EDE0F0E0A1E7B0E00E942705E0E0FCE01E
:1003C0000E940805E1E7F0E00E94AB030E9476047A
:1003D000EDE0F0E0A1E7B0E00E9427058FE711E033
:1003E0000E942E02E4E0FCE00E941802A0E2B8E0C5
:1003F000E1E7F0E00E94AB030E94BE020E941002FF
:10040000EEE0FCE00E9418028FE71EE00E942E0240
:1004100080E00E947C02E2E1FCE00E941802189554
:10042000A0E2B8E08D91882311F066D0FBCF08954B
:100430000E940405802D11F05FD0FACF089581E06D
:1004400061D00FD080E85EC08FE7213039F08FEBAC
:10045000223021F08FE8233009F08FEC810F0C94CB
:10046000820283E099277BC08AEF90E00E94AF026E
:10047000BF9ABE9ABD9ABC9AB99AB89AC09885E0BC
:1004800090E00E94AF02C198C798C698C59AC49AD6
:10049000C19AEF93FF93E6EFF0E00E94A302FF9171
:1004A000EF91C19859D0C19AEF93FF93E6EFF0E036
:1004B0000E94A302FF91EF91C1984ED0C19AEF9391
:1004C000FF93E6EFF0E00E94A302FF91EF91C19845
:1004D00043D0C498C19AEF93FF93E6EFF0E00E94F7
:1004E000A302FF91EF91C19837D088E20BD08EE044
:1004F00009D086E007D00895C09A829505D004D02F
:100500002BD00895C098F9CF859510F4C49A01C0F6
:10051000C498859510F4C59A01C0C598859510F4C6
:10052000C69A01C0C698859510F4C79A01C0C798AD
:10053000C19AEF93FF93E6EFF0E00E94A302FF91D0
:10054000EF91C19808953197F1F70895689462F892
:100550000895E89462F8089581E090E000C0EF9378
:10056000FF93EE27E82BE92B31F0E4ECF9E031972B
:10057000F1F70197D1F7FF91EF9108958DE207FD13
:100580008D938F2D881F802F881F8F57082F689479
:10059000F7F8802F87FF15C080958395082F80E39B
:1005A0008D938EE28D93802F815228F080E38D937E
:1005B00099279C93089544270A95802F09F196D096
:1005C0001FC0805230F09EE49D9381E48D939D93F3
:1005D000EFCF4427DF92EF92FF920F938FE1801BC2
:1005E00011F0082F83D089D09EE29D930F91FF9048
:1005F000EF90DF9044270395003209F4D7CF2BD03A
:100600003F93ECE8F6E038E12F2D1E2D0D2DFF2451
:10061000EE24DD244427000F111F221FA8F42F927F
:100620003F920E940405102C0E940405202C0E9479
:100630000405302C0E9404053197410DD21CE31CA7
:10064000F01C3F902F9001C0339631963A9519F7E0
:100650003F9107D0AFCFDD0CEE1CFF1C0A95D9F7F8
:100660000895002719E058D08F93802B11F003953F
:1006700001C08F911A95B9F7802F882309F496CF7E
:100680008F91805D8D930A95D9F792CF0065CD1D2E
:1006900080B2E60E40597307A0ACB90350D6DC0116
:1006A000286BEE0094357700CA9A3B0065CD1D009B
:1006B000B2E60E0059730700ACB90300D6DC0100A6
:1006C0006BEE0000357700009A3B0000CD1D000066
:1006D000E60E000073070000B9030000DC01000013
:1006E000EE000000770000003B000000F694E79465
:1006F000D79447950A95D1F7089500270DD08F9389
:1007000003958F2D8E298D29842BC1F78F91805DC4
:100710008D930A95D9F74CCF1F930F93002710E2C2
:10072000440FDD1CEE1CFF1C001F802F9AE0890B7C
:1007300010F0082F43951A9599F7802F0F911F916C
:100740000895D094E094F09491E0D90E9927E91E91
:10075000F91E10950895D190E190F19001910895BE
:1007600021913191419151910895102F90E8FF0C02
:10077000001F0927990FF7941078652F90E8440F10
:10078000551F5927990F4795607800380895FF0C39
:1007900090E89027110F9795F794092F0895102F3F
:1007A000BD2CDE2CEF2CF02E11234AF4B094D09403
:1007B000E094F0949FEFB91AD90AE90AF90A0EE118
:1007C000FF2039F4FE2CED2CDB2CBB240850C2F7A3
:1007D0006BC032F00A95BB0CDD1CEE1CFF1CF9CF80
:1007E00001D0D5CFB7FE089590E8B91611F4D0FE28
:1007F00008959FEFD91AE90AF90A09F403950895B3
:10080000DD92ED92FD920C930895502F2D2D3E2DEB
:100810004F2D612F08952DEC3CEC4CEC5DE36627E9
:100820000FC099DFF2DFDD24EE2490E8F92E0FE30C
:1008300007C096DF05C02227332740E251E4662730
:10084000552351F1002381F190DF71F116270058F3
:1008500050580894050B18F407FD03C025C007FD88
:1008600023C0469537952795F694E794D79422D0E0
:10087000FF202AF0DD0CEE1CFF1C015073F09D2DB3
:10088000969548F0DD203AF4EE202AF491E0D90E56
:100890009927E91EF91E7BCF07C09FE7092FF92A88
:1008A0009FEFD92EE92E0895DD24EE24FF240027A2
:1008B000112708959F929924AA24BB2488E1D21677
:1008C000E306F40628F0D21AE30AF40A089401C0F9
:1008D0008894991CAA1CBB1CDD0CEE1CFF1C8A957D
:1008E00071F7D92CEA2CFB2C9F9008953EDFE1F2A2
:1008F0005038D1F21627005850580894051F12F4AA
:1009000018F4CBCF08F0D0CF0AD0FF202AF0BB0CD0
:10091000DD1CEE1CFF1C3BCF0F5FFBF138CF9F921D
:100920009924AA24BB24992788E1990CAA1CBB1CF2
:10093000DD1CEE1CFF1C30F4920EA31EB41ED91E4B
:10094000E91EF91E8A9589F79F90089509DF0DDF4A
:10095000503829F090E869270CC00AF045D017CF2D
:100960005FE322273327442701C0FADEFEDE50383A
:10097000B1F3003899F3902F951B8BF312F434D018
:10098000FACF983118F0222733274427983028F0DF
:10099000232F342F44279850F9CF992329F04695D7
:1009A000379527959A95D9F7912F962742F014D02D
:1009B000B0F6F794E794D7940F5F8BF66ECF10D014
:1009C00051F008F4BEDEFF2052F2DD0CEE1CFF1CDD
:1009D0000150CBF762CF68CFD20EE31EF41E08950C
:1009E000D21AE30AF40A0895DF92EF92FF920F936E
:1009F0001F93D22EE32EF42E052F162F6F915F91A9
:100A00004F913F912F910895C895319600200895F8
:100A1000FBDF202DF9DF302DF7DF402DF5DF502DE6
:100A2000089507FB00680EF40F7757FB50680EF42B
:100A30005F7707FD02C057FF05C0D216E306F40634
:100A4000050708952D153E054F055007089594E0BC
:100A500081918D939A95E1F708957DDE89E051D0DB
:100A6000802F9F2D990F881F8F3718F0DBDE81E0D4
:100A700001C080E080871496C3DE1797C6DE36DF9C
:100A8000BFDE139720E430EE4EE65DE32FDF2EE469
:100A900032EB43E45FE32BD02227332740E85FE3C8
:100AA00065DFB3DE349657DE3897CADE1496A8DECB
:100AB000179751DE349725E038EF4CED5EE316DFF3
:100AC0002227332740E85FE351DF349649DE389729
:100AD0000DDF8085879550F42BED3FE049EC5FE317
:100AE000802F807800680827582740DF17C03EDF36
:100AF00037DE3497FBCE2FDE21EE3EE245E652E4B0
:100B0000F5CE0FB6F8944A925A92E42DF52DA42D05
:100B1000B52D480E8827581E0FBE08950FB6F894BD
:100B2000599049900FBE089516DE802FFF0C001FCC
:100B3000901728F4091B881F0795F7940895B4CEE1
:100B40005FE340E83327222708950FE305C000E460
:100B500089E4F82E03C000E489ECF82E8FE0E82E3B
:100B60008BEDD82E0895F7DD902F0F77E9DF59DF51
:100B700090F4092FDF92EF92FF920F9346DEB6DEDC
:100B80000068DEDFF3DE0DD040DE0F91FF90EF90C6
:100B9000DF9056DE63CFD9DF9078092B089584CE9D
:100BA000DADD0023E2F3D9F388E0ABDF29DE11962A
:100BB000FF0C001F8FE7080F0795F7940695F79431
:100BC00083E08F9322DE1CDE1397C5DD39DEC8DD9E
:100BD0003897CCDE91E0A9DF8F918A9511F08F9341
:100BE000F1CF9CCF0000103F96438B3C0000E03ECD
:100BF0007F6A3C3C0000003F0000003E0000B44221
:100C0000000080BF416E676C65203D200000202001
:060C10000000202020007E
:00000001FF
